{"abi":[{"type":"function","name":"computeAddress","inputs":[{"name":"deployer","type":"address","internalType":"address"},{"name":"salt","type":"uint256","internalType":"uint256"},{"name":"creationCode","type":"bytes","internalType":"bytes"}],"outputs":[{"name":"hookAddress","type":"address","internalType":"address"}],"stateMutability":"pure"},{"type":"function","name":"find","inputs":[{"name":"deployer","type":"address","internalType":"address"},{"name":"flags","type":"uint160","internalType":"uint160"},{"name":"seed","type":"uint256","internalType":"uint256"},{"name":"creationCode","type":"bytes","internalType":"bytes"},{"name":"constructorArgs","type":"bytes","internalType":"bytes"}],"outputs":[{"name":"","type":"address","internalType":"address"},{"name":"","type":"bytes32","internalType":"bytes32"}],"stateMutability":"pure"}],"bytecode":{"object":"0x61044f610034600b8282823980515f1a607314602857634e487b7160e01b5f525f60045260245ffd5b305f52607381538281f3fe730000000000000000000000000000000000000000301460806040526004361061003f575f3560e01c8063013a236e14610043578063ab865118146100e4575b5f80fd5b6100c7610051366004610304565b8051602091820120604080517fff000000000000000000000000000000000000000000000000000000000000008185015260609590951b6bffffffffffffffffffffffff191660218601526035850193909352605580850191909152825180850390910181526075909301909152815191012090565b6040516001600160a01b0390911681526020015b60405180910390f35b6100f76100f2366004610359565b610116565b604080516001600160a01b0390931683526020830191909152016100db565b5f805f80858560405160200161012d9291906103fd565b60408051601f198184030181529190529050865b620186a08110156101fa578151602080840191909120604080517fff00000000000000000000000000000000000000000000000000000000000000818501526bffffffffffffffffffffffff1960608f901b16602182015260358101859052605580820193909352815180820390930183526075019052805191012092506001600160a01b03891673ffc00000000000000000000000000000000000008416036101f2579193509091506102469050565b600101610141565b60405162461bcd60e51b815260206004820152601e60248201527f486f6f6b4d696e65723a20636f756c64206e6f742066696e642073616c740000604482015260640160405180910390fd5b9550959350505050565b6001600160a01b0381168114610264575f80fd5b50565b634e487b7160e01b5f52604160045260245ffd5b5f82601f83011261028a575f80fd5b813567ffffffffffffffff808211156102a5576102a5610267565b604051601f8301601f19908116603f011681019082821181831017156102cd576102cd610267565b816040528381528660208588010111156102e5575f80fd5b836020870160208301375f602085830101528094505050505092915050565b5f805f60608486031215610316575f80fd5b833561032181610250565b925060208401359150604084013567ffffffffffffffff811115610343575f80fd5b61034f8682870161027b565b9150509250925092565b5f805f805f60a0868803121561036d575f80fd5b853561037881610250565b9450602086013561038881610250565b935060408601359250606086013567ffffffffffffffff808211156103ab575f80fd5b6103b789838a0161027b565b935060808801359150808211156103cc575f80fd5b506103d98882890161027b565b9150509295509295909350565b5f81518060208401855e5f93019283525090919050565b5f61041161040b83866103e6565b846103e6565b94935050505056fea2646970667358221220de0f75c147a91a578d5eba7f6d88fbf2a3f3a6ef823e0a5125ef8877c3f36f5164736f6c63430008190033","linkReferences":{}},"methodIdentifiers":{"computeAddress(address,uint256,bytes)":"013a236e","find(address,uint160,uint256,bytes,bytes)":"ab865118"},"id":73}