{"abi":[{"type":"function","name":"ADDRESS_ZERO","inputs":[],"outputs":[{"name":"","type":"address","internalType":"Currency"}],"stateMutability":"view"},{"type":"error","name":"Wrap__ERC20TransferFailed","inputs":[{"name":"token","type":"address","internalType":"address"},{"name":"reason","type":"bytes","internalType":"bytes"}]},{"type":"error","name":"Wrap__NativeTransferFailed","inputs":[{"name":"recipient","type":"address","internalType":"address"},{"name":"reason","type":"bytes","internalType":"bytes"}]}],"bytecode":{"object":"0x609b6032600b8282823980515f1a607314602657634e487b7160e01b5f525f60045260245ffd5b305f52607381538281f3fe73000000000000000000000000000000000000000030146080604052600436106032575f3560e01c806366e79509146036575b5f80fd5b603c5f81565b60405173ffffffffffffffffffffffffffffffffffffffff909116815260200160405180910390f3fea2646970667358221220c1cfdcca1461cc970f00b41a975c97b5614b411996251b1f37983aec3e39f0c464736f6c63430008190033","linkReferences":{}},"methodIdentifiers":{"ADDRESS_ZERO()":"66e79509"},"id":34}