{"abi":[{"type":"constructor","inputs":[{"name":"_manager","type":"address","internalType":"contract IPoolManager"},{"name":"_name","type":"string","internalType":"string"},{"name":"_symbol","type":"string","internalType":"string"}],"stateMutability":"nonpayable"},{"type":"function","name":"DOMAIN_SEPARATOR","inputs":[],"outputs":[{"name":"","type":"bytes32","internalType":"bytes32"}],"stateMutability":"view"},{"type":"function","name":"POINTS_FOR_REFERRAL","inputs":[],"outputs":[{"name":"","type":"uint256","internalType":"uint256"}],"stateMutability":"view"},{"type":"function","name":"afterAddLiquidity","inputs":[{"name":"","type":"address","internalType":"address"},{"name":"key","type":"tuple","internalType":"struct PoolKey","components":[{"name":"currency0","type":"address","internalType":"Currency"},{"name":"currency1","type":"address","internalType":"Currency"},{"name":"fee","type":"uint24","internalType":"uint24"},{"name":"tickSpacing","type":"int24","internalType":"int24"},{"name":"hooks","type":"address","internalType":"contract IHooks"}]},{"name":"","type":"tuple","internalType":"struct IPoolManager.ModifyLiquidityParams","components":[{"name":"tickLower","type":"int24","internalType":"int24"},{"name":"tickUpper","type":"int24","internalType":"int24"},{"name":"liquidityDelta","type":"int256","internalType":"int256"}]},{"name":"delta","type":"int256","internalType":"BalanceDelta"},{"name":"hookData","type":"bytes","internalType":"bytes"}],"outputs":[{"name":"","type":"bytes4","internalType":"bytes4"}],"stateMutability":"nonpayable"},{"type":"function","name":"afterDonate","inputs":[{"name":"","type":"address","internalType":"address"},{"name":"","type":"tuple","internalType":"struct PoolKey","components":[{"name":"currency0","type":"address","internalType":"Currency"},{"name":"currency1","type":"address","internalType":"Currency"},{"name":"fee","type":"uint24","internalType":"uint24"},{"name":"tickSpacing","type":"int24","internalType":"int24"},{"name":"hooks","type":"address","internalType":"contract IHooks"}]},{"name":"","type":"uint256","internalType":"uint256"},{"name":"","type":"uint256","internalType":"uint256"},{"name":"","type":"bytes","internalType":"bytes"}],"outputs":[{"name":"","type":"bytes4","internalType":"bytes4"}],"stateMutability":"nonpayable"},{"type":"function","name":"afterInitialize","inputs":[{"name":"","type":"address","internalType":"address"},{"name":"","type":"tuple","internalType":"struct PoolKey","components":[{"name":"currency0","type":"address","internalType":"Currency"},{"name":"currency1","type":"address","internalType":"Currency"},{"name":"fee","type":"uint24","internalType":"uint24"},{"name":"tickSpacing","type":"int24","internalType":"int24"},{"name":"hooks","type":"address","internalType":"contract IHooks"}]},{"name":"","type":"uint160","internalType":"uint160"},{"name":"","type":"int24","internalType":"int24"},{"name":"","type":"bytes","internalType":"bytes"}],"outputs":[{"name":"","type":"bytes4","internalType":"bytes4"}],"stateMutability":"nonpayable"},{"type":"function","name":"afterRemoveLiquidity","inputs":[{"name":"","type":"address","internalType":"address"},{"name":"","type":"tuple","internalType":"struct PoolKey","components":[{"name":"currency0","type":"address","internalType":"Currency"},{"name":"currency1","type":"address","internalType":"Currency"},{"name":"fee","type":"uint24","internalType":"uint24"},{"name":"tickSpacing","type":"int24","internalType":"int24"},{"name":"hooks","type":"address","internalType":"contract IHooks"}]},{"name":"","type":"tuple","internalType":"struct IPoolManager.ModifyLiquidityParams","components":[{"name":"tickLower","type":"int24","internalType":"int24"},{"name":"tickUpper","type":"int24","internalType":"int24"},{"name":"liquidityDelta","type":"int256","internalType":"int256"}]},{"name":"","type":"int256","internalType":"BalanceDelta"},{"name":"","type":"bytes","internalType":"bytes"}],"outputs":[{"name":"","type":"bytes4","internalType":"bytes4"}],"stateMutability":"nonpayable"},{"type":"function","name":"afterSwap","inputs":[{"name":"","type":"address","internalType":"address"},{"name":"key","type":"tuple","internalType":"struct PoolKey","components":[{"name":"currency0","type":"address","internalType":"Currency"},{"name":"currency1","type":"address","internalType":"Currency"},{"name":"fee","type":"uint24","internalType":"uint24"},{"name":"tickSpacing","type":"int24","internalType":"int24"},{"name":"hooks","type":"address","internalType":"contract IHooks"}]},{"name":"swapParams","type":"tuple","internalType":"struct IPoolManager.SwapParams","components":[{"name":"zeroForOne","type":"bool","internalType":"bool"},{"name":"amountSpecified","type":"int256","internalType":"int256"},{"name":"sqrtPriceLimitX96","type":"uint160","internalType":"uint160"}]},{"name":"delta","type":"int256","internalType":"BalanceDelta"},{"name":"hookData","type":"bytes","internalType":"bytes"}],"outputs":[{"name":"","type":"bytes4","internalType":"bytes4"}],"stateMutability":"nonpayable"},{"type":"function","name":"allowance","inputs":[{"name":"","type":"address","internalType":"address"},{"name":"","type":"address","internalType":"address"}],"outputs":[{"name":"","type":"uint256","internalType":"uint256"}],"stateMutability":"view"},{"type":"function","name":"approve","inputs":[{"name":"spender","type":"address","internalType":"address"},{"name":"amount","type":"uint256","internalType":"uint256"}],"outputs":[{"name":"","type":"bool","internalType":"bool"}],"stateMutability":"nonpayable"},{"type":"function","name":"balanceOf","inputs":[{"name":"","type":"address","internalType":"address"}],"outputs":[{"name":"","type":"uint256","internalType":"uint256"}],"stateMutability":"view"},{"type":"function","name":"beforeAddLiquidity","inputs":[{"name":"","type":"address","internalType":"address"},{"name":"","type":"tuple","internalType":"struct PoolKey","components":[{"name":"currency0","type":"address","internalType":"Currency"},{"name":"currency1","type":"address","internalType":"Currency"},{"name":"fee","type":"uint24","internalType":"uint24"},{"name":"tickSpacing","type":"int24","internalType":"int24"},{"name":"hooks","type":"address","internalType":"contract IHooks"}]},{"name":"","type":"tuple","internalType":"struct IPoolManager.ModifyLiquidityParams","components":[{"name":"tickLower","type":"int24","internalType":"int24"},{"name":"tickUpper","type":"int24","internalType":"int24"},{"name":"liquidityDelta","type":"int256","internalType":"int256"}]},{"name":"","type":"bytes","internalType":"bytes"}],"outputs":[{"name":"","type":"bytes4","internalType":"bytes4"}],"stateMutability":"nonpayable"},{"type":"function","name":"beforeDonate","inputs":[{"name":"","type":"address","internalType":"address"},{"name":"","type":"tuple","internalType":"struct PoolKey","components":[{"name":"currency0","type":"address","internalType":"Currency"},{"name":"currency1","type":"address","internalType":"Currency"},{"name":"fee","type":"uint24","internalType":"uint24"},{"name":"tickSpacing","type":"int24","internalType":"int24"},{"name":"hooks","type":"address","internalType":"contract IHooks"}]},{"name":"","type":"uint256","internalType":"uint256"},{"name":"","type":"uint256","internalType":"uint256"},{"name":"","type":"bytes","internalType":"bytes"}],"outputs":[{"name":"","type":"bytes4","internalType":"bytes4"}],"stateMutability":"nonpayable"},{"type":"function","name":"beforeInitialize","inputs":[{"name":"","type":"address","internalType":"address"},{"name":"","type":"tuple","internalType":"struct PoolKey","components":[{"name":"currency0","type":"address","internalType":"Currency"},{"name":"currency1","type":"address","internalType":"Currency"},{"name":"fee","type":"uint24","internalType":"uint24"},{"name":"tickSpacing","type":"int24","internalType":"int24"},{"name":"hooks","type":"address","internalType":"contract IHooks"}]},{"name":"","type":"uint160","internalType":"uint160"},{"name":"","type":"bytes","internalType":"bytes"}],"outputs":[{"name":"","type":"bytes4","internalType":"bytes4"}],"stateMutability":"nonpayable"},{"type":"function","name":"beforeRemoveLiquidity","inputs":[{"name":"","type":"address","internalType":"address"},{"name":"","type":"tuple","internalType":"struct PoolKey","components":[{"name":"currency0","type":"address","internalType":"Currency"},{"name":"currency1","type":"address","internalType":"Currency"},{"name":"fee","type":"uint24","internalType":"uint24"},{"name":"tickSpacing","type":"int24","internalType":"int24"},{"name":"hooks","type":"address","internalType":"contract IHooks"}]},{"name":"","type":"tuple","internalType":"struct IPoolManager.ModifyLiquidityParams","components":[{"name":"tickLower","type":"int24","internalType":"int24"},{"name":"tickUpper","type":"int24","internalType":"int24"},{"name":"liquidityDelta","type":"int256","internalType":"int256"}]},{"name":"","type":"bytes","internalType":"bytes"}],"outputs":[{"name":"","type":"bytes4","internalType":"bytes4"}],"stateMutability":"nonpayable"},{"type":"function","name":"beforeSwap","inputs":[{"name":"","type":"address","internalType":"address"},{"name":"","type":"tuple","internalType":"struct PoolKey","components":[{"name":"currency0","type":"address","internalType":"Currency"},{"name":"currency1","type":"address","internalType":"Currency"},{"name":"fee","type":"uint24","internalType":"uint24"},{"name":"tickSpacing","type":"int24","internalType":"int24"},{"name":"hooks","type":"address","internalType":"contract IHooks"}]},{"name":"","type":"tuple","internalType":"struct IPoolManager.SwapParams","components":[{"name":"zeroForOne","type":"bool","internalType":"bool"},{"name":"amountSpecified","type":"int256","internalType":"int256"},{"name":"sqrtPriceLimitX96","type":"uint160","internalType":"uint160"}]},{"name":"","type":"bytes","internalType":"bytes"}],"outputs":[{"name":"","type":"bytes4","internalType":"bytes4"}],"stateMutability":"nonpayable"},{"type":"function","name":"decimals","inputs":[],"outputs":[{"name":"","type":"uint8","internalType":"uint8"}],"stateMutability":"view"},{"type":"function","name":"getHookData","inputs":[{"name":"referrer","type":"address","internalType":"address"},{"name":"referree","type":"address","internalType":"address"}],"outputs":[{"name":"","type":"bytes","internalType":"bytes"}],"stateMutability":"pure"},{"type":"function","name":"getHookPermissions","inputs":[],"outputs":[{"name":"","type":"tuple","internalType":"struct Hooks.Permissions","components":[{"name":"beforeInitialize","type":"bool","internalType":"bool"},{"name":"afterInitialize","type":"bool","internalType":"bool"},{"name":"beforeAddLiquidity","type":"bool","internalType":"bool"},{"name":"afterAddLiquidity","type":"bool","internalType":"bool"},{"name":"beforeRemoveLiquidity","type":"bool","internalType":"bool"},{"name":"afterRemoveLiquidity","type":"bool","internalType":"bool"},{"name":"beforeSwap","type":"bool","internalType":"bool"},{"name":"afterSwap","type":"bool","internalType":"bool"},{"name":"beforeDonate","type":"bool","internalType":"bool"},{"name":"afterDonate","type":"bool","internalType":"bool"}]}],"stateMutability":"pure"},{"type":"function","name":"lockAcquired","inputs":[{"name":"data","type":"bytes","internalType":"bytes"}],"outputs":[{"name":"","type":"bytes","internalType":"bytes"}],"stateMutability":"nonpayable"},{"type":"function","name":"name","inputs":[],"outputs":[{"name":"","type":"string","internalType":"string"}],"stateMutability":"view"},{"type":"function","name":"nonces","inputs":[{"name":"","type":"address","internalType":"address"}],"outputs":[{"name":"","type":"uint256","internalType":"uint256"}],"stateMutability":"view"},{"type":"function","name":"permit","inputs":[{"name":"owner","type":"address","internalType":"address"},{"name":"spender","type":"address","internalType":"address"},{"name":"value","type":"uint256","internalType":"uint256"},{"name":"deadline","type":"uint256","internalType":"uint256"},{"name":"v","type":"uint8","internalType":"uint8"},{"name":"r","type":"bytes32","internalType":"bytes32"},{"name":"s","type":"bytes32","internalType":"bytes32"}],"outputs":[],"stateMutability":"nonpayable"},{"type":"function","name":"poolManager","inputs":[],"outputs":[{"name":"","type":"address","internalType":"contract IPoolManager"}],"stateMutability":"view"},{"type":"function","name":"referredBy","inputs":[{"name":"","type":"address","internalType":"address"}],"outputs":[{"name":"","type":"address","internalType":"address"}],"stateMutability":"view"},{"type":"function","name":"symbol","inputs":[],"outputs":[{"name":"","type":"string","internalType":"string"}],"stateMutability":"view"},{"type":"function","name":"totalSupply","inputs":[],"outputs":[{"name":"","type":"uint256","internalType":"uint256"}],"stateMutability":"view"},{"type":"function","name":"transfer","inputs":[{"name":"to","type":"address","internalType":"address"},{"name":"amount","type":"uint256","internalType":"uint256"}],"outputs":[{"name":"","type":"bool","internalType":"bool"}],"stateMutability":"nonpayable"},{"type":"function","name":"transferFrom","inputs":[{"name":"from","type":"address","internalType":"address"},{"name":"to","type":"address","internalType":"address"},{"name":"amount","type":"uint256","internalType":"uint256"}],"outputs":[{"name":"","type":"bool","internalType":"bool"}],"stateMutability":"nonpayable"},{"type":"event","name":"Approval","inputs":[{"name":"owner","type":"address","indexed":true,"internalType":"address"},{"name":"spender","type":"address","indexed":true,"internalType":"address"},{"name":"amount","type":"uint256","indexed":false,"internalType":"uint256"}],"anonymous":false},{"type":"event","name":"Transfer","inputs":[{"name":"from","type":"address","indexed":true,"internalType":"address"},{"name":"to","type":"address","indexed":true,"internalType":"address"},{"name":"amount","type":"uint256","indexed":false,"internalType":"uint256"}],"anonymous":false},{"type":"error","name":"HookAddressNotValid","inputs":[{"name":"hooks","type":"address","internalType":"address"}]},{"type":"error","name":"HookNotImplemented","inputs":[]},{"type":"error","name":"InvalidPool","inputs":[]},{"type":"error","name":"LockFailure","inputs":[]},{"type":"error","name":"NotPoolManager","inputs":[]},{"type":"error","name":"NotSelf","inputs":[]}],"bytecode":{"object":"0x610100604052348015610010575f80fd5b50604051611bbe380380611bbe83398101604081905261002f91610390565b6001600160a01b038316608052818160128561004a30610086565b505f6100568482610490565b5060016100638382610490565b5060ff811660a0524660c052610077610139565b60e052506105c1945050505050565b6101368161013160408051610140810182525f80825260208201819052918101829052606081018290526080810182905260a0810182905260c0810182905260e0810182905261010081018290526101208101919091525060408051610140810182525f808252602082018190529181018290526001606082018190526080820183905260a0820183905260c0820183905260e0820152610100810182905261012081019190915290565b6101d1565b50565b5f7f8b73c3c69bb8fe3d512ecc4cf759cc79239f7b179b0ffacaa9a75d522b39400f5f604051610169919061054f565b6040805191829003822060208301939093528101919091527fc89efdaa54c0f20c7adf612882df0950f5a951637e0307cdcb4c672f298b8bc660608201524660808201523060a082015260c00160405160208183030381529060405280519060200120905090565b805115156001609f1b831615151415806101f95750602081015115156001609e1b8316151514155b806102125750604081015115156001609d1b8316151514155b8061022b5750606081015115156001609c1b8316151514155b806102445750608081015115156001609b1b8316151514155b8061025d575060a081015115156001609a1b8316151514155b80610276575060c08101511515600160991b8316151514155b8061028f575060e08101511515600160981b8316151514155b806102a957506101008101511515600160971b8316151514155b806102c357506101208101511515600160961b8316151514155b156102f057604051630732d7b560e51b81526001600160a01b038316600482015260240160405180910390fd5b5050565b634e487b7160e01b5f52604160045260245ffd5b5f82601f830112610317575f80fd5b81516001600160401b0380821115610331576103316102f4565b604051601f8301601f19908116603f01168101908282118183101715610359576103596102f4565b81604052838152866020858801011115610371575f80fd5b8360208701602083015e5f602085830101528094505050505092915050565b5f805f606084860312156103a2575f80fd5b83516001600160a01b03811681146103b8575f80fd5b60208501519093506001600160401b03808211156103d4575f80fd5b6103e087838801610308565b935060408601519150808211156103f5575f80fd5b5061040286828701610308565b9150509250925092565b600181811c9082168061042057607f821691505b60208210810361043e57634e487b7160e01b5f52602260045260245ffd5b50919050565b601f82111561048b57805f5260205f20601f840160051c810160208510156104695750805b601f840160051c820191505b81811015610488575f8155600101610475565b50505b505050565b81516001600160401b038111156104a9576104a96102f4565b6104bd816104b7845461040c565b84610444565b602080601f8311600181146104f0575f84156104d95750858301515b5f19600386901b1c1916600185901b178555610547565b5f85815260208120601f198616915b8281101561051e578886015182559484019460019091019084016104ff565b508582101561053b57878501515f19600388901b60f8161c191681555b505060018460011b0185555b505050505050565b5f80835461055c8161040c565b600182811680156105745760018114610589576105b5565b60ff19841687528215158302870194506105b5565b875f526020805f205f5b858110156105ac5781548a820152908401908201610593565b50505082870194505b50929695505050505050565b60805160a05160c05160e0516115b56106095f395f61075701525f61072201525f6102b101525f81816104d501528181610809015281816108ea01526109e801526115b55ff3fe608060405234801561000f575f80fd5b50600436106101bb575f3560e01c8063a6ab2a43116100f3578063b6a8b0fa11610093578063d505accf1161006e578063d505accf146104bb578063dc4c90d3146104d0578063dd62ed3e146104f7578063e1b4af69146103eb575f80fd5b8063b6a8b0fa146103eb578063c3d5d4e6146103f9578063c4e833ce14610407575f80fd5b8063a910f80f116100ce578063a910f80f146103a4578063ab6291fe146103b2578063b47b2fb1146103c5578063b505b4ce146103d8575f80fd5b8063a6ab2a4314610268578063a9059cbb14610351578063a90f8e9a14610364575f80fd5b80633440d8201161015e578063575e24b411610139578063575e24b41461026857806370a082311461030b5780637ecebe001461032a57806395d89b4114610349575f80fd5b80633440d820146102e55780633644e515146102f357806345865829146102fb575f80fd5b806318160ddd1161019957806318160ddd1461023e57806323b872dd146102555780632b58404e14610268578063313ce567146102ac575f80fd5b806306fdde03146101bf578063095ea7b3146101dd5780631783e86514610200575b5f80fd5b6101c7610521565b6040516101d49190610f06565b60405180910390f35b6101f06101eb366004610f36565b6105ac565b60405190151581526020016101d4565b6101c761020e366004610f60565b604080516001600160a01b0393841660208201529190921681830152815180820383018152606090910190915290565b61024760025481565b6040519081526020016101d4565b6101f0610263366004610f97565b610618565b61027b610276366004611040565b610705565b6040517fffffffff0000000000000000000000000000000000000000000000000000000090911681526020016101d4565b6102d37f000000000000000000000000000000000000000000000000000000000000000081565b60405160ff90911681526020016101d4565b61027b6102763660046110b7565b61024761071f565b610247681b1ae4d6e2ef50000081565b610247610319366004611111565b60036020525f908152604090205481565b610247610338366004611111565b60056020525f908152604090205481565b6101c7610779565b6101f061035f366004610f36565b610786565b61038c610372366004611111565b60066020525f90815260409020546001600160a01b031681565b6040516001600160a01b0390911681526020016101d4565b61027b61027636600461112c565b6101c76103c03660046111bc565b6107fc565b61027b6103d33660046111fb565b6108de565b61027b6103e63660046111fb565b6109dc565b61027b61027636600461125e565b61027b6102763660046111fb565b6104ae60408051610140810182525f80825260208201819052918101829052606081018290526080810182905260a0810182905260c0810182905260e0810182905261010081018290526101208101919091525060408051610140810182525f808252602082018190529181018290526001606082018190526080820183905260a0820183905260c0820183905260e0820152610100810182905261012081019190915290565b6040516101d491906112b8565b6104ce6104c9366004611370565b610a80565b005b61038c7f000000000000000000000000000000000000000000000000000000000000000081565b610247610505366004610f60565b600460209081525f928352604080842090915290825290205481565b5f805461052d906113e1565b80601f0160208091040260200160405190810160405280929190818152602001828054610559906113e1565b80156105a45780601f1061057b576101008083540402835291602001916105a4565b820191905f5260205f20905b81548152906001019060200180831161058757829003601f168201915b505050505081565b335f8181526004602090815260408083206001600160a01b038716808552925280832085905551919290917f8c5be1e5ebec7d5bd14f71427d1e84f3dd0314c0f7b2291e5b200ac8c7c3b925906106069086815260200190565b60405180910390a35060015b92915050565b6001600160a01b0383165f9081526004602090815260408083203384529091528120545f1981146106715761064d8382611427565b6001600160a01b0386165f9081526004602090815260408083203384529091529020555b6001600160a01b0385165f9081526003602052604081208054859290610698908490611427565b90915550506001600160a01b038085165f81815260036020526040908190208054870190555190918716907fddf252ad1be2c89b69c2b068fc378daa952ba7f163c4a11628f55a4df523b3ef906106f29087815260200190565b60405180910390a3506001949350505050565b5f604051630a85dc2960e01b815260040160405180910390fd5b5f7f000000000000000000000000000000000000000000000000000000000000000046146107545761074f610cd2565b905090565b507f000000000000000000000000000000000000000000000000000000000000000090565b6001805461052d906113e1565b335f908152600360205260408120805483919083906107a6908490611427565b90915550506001600160a01b0383165f81815260036020526040908190208054850190555133907fddf252ad1be2c89b69c2b068fc378daa952ba7f163c4a11628f55a4df523b3ef906106069086815260200190565b6060336001600160a01b037f000000000000000000000000000000000000000000000000000000000000000016146108475760405163570c108560e11b815260040160405180910390fd5b5f80306001600160a01b0316858560405161086392919061143a565b5f604051808303815f865af19150503d805f811461089c576040519150601f19603f3d011682016040523d82523d5f602084013e6108a1565b606091505b509150915081156108b55791506106129050565b80515f036108d6576040516314815f4760e31b815260040160405180910390fd5b805160208201fd5b5f336001600160a01b037f000000000000000000000000000000000000000000000000000000000000000016146109285760405163570c108560e11b815260040160405180910390fd5b6109456109386020880188611111565b6001600160a01b03161590565b610957575063b47b2fb160e01b6109d2565b6109646020860186611449565b610976575063b47b2fb160e01b6109d2565b5f8086602001351261099d5761098c8560801c90565b61099590611468565b600f0b6109aa565b6109aa6020870135611495565b90505f6109b86005836114af565b90506109c5858583610d6a565b5063b47b2fb160e01b9150505b9695505050505050565b5f336001600160a01b037f00000000000000000000000000000000000000000000000000000000000000001614610a265760405163570c108560e11b815260040160405180910390fd5b610a366109386020880188611111565b610a48575063b47b2fb160e01b6109d2565b5f610a538560801c90565b610a5c90611468565b600f0b9050610a6c848483610d6a565b50635a82da6760e11b979650505050505050565b42841015610ad55760405162461bcd60e51b815260206004820152601760248201527f5045524d49545f444541444c494e455f4558504952454400000000000000000060448201526064015b60405180910390fd5b5f6001610ae061071f565b6001600160a01b038a81165f8181526005602090815260409182902080546001810190915582517f6e71edae12b1b97f4d1f60370fef10105fa2faae0126114a169c64845d6126c98184015280840194909452938d166060840152608083018c905260a083019390935260c08083018b90528151808403909101815260e08301909152805192019190912061190160f01b6101008301526101028201929092526101228101919091526101420160408051601f1981840301815282825280516020918201205f84529083018083525260ff871690820152606081018590526080810184905260a0016020604051602081039080840390855afa158015610be8573d5f803e3d5ffd5b5050604051601f1901519150506001600160a01b03811615801590610c1e5750876001600160a01b0316816001600160a01b0316145b610c6a5760405162461bcd60e51b815260206004820152600e60248201527f494e56414c49445f5349474e45520000000000000000000000000000000000006044820152606401610acc565b6001600160a01b039081165f9081526004602090815260408083208a8516808552908352928190208990555188815291928a16917f8c5be1e5ebec7d5bd14f71427d1e84f3dd0314c0f7b2291e5b200ac8c7c3b925910160405180910390a350505050505050565b5f7f8b73c3c69bb8fe3d512ecc4cf759cc79239f7b179b0ffacaa9a75d522b39400f5f604051610d0291906114ce565b6040805191829003822060208301939093528101919091527fc89efdaa54c0f20c7adf612882df0950f5a951637e0307cdcb4c672f298b8bc660608201524660808201523060a082015260c00160405160208183030381529060405280519060200120905090565b5f829003610d7757505050565b5f80610d8584860186610f60565b90925090506001600160a01b038116610d9f575050505050565b6001600160a01b038181165f9081526006602052604090205416158015610dce57506001600160a01b03821615155b15610e2b576001600160a01b038181165f90815260066020526040902080547fffffffffffffffffffffffff000000000000000000000000000000000000000016918416919091179055610e2b82681b1ae4d6e2ef500000610e6f565b6001600160a01b038181165f908152600660205260409020541615610e5e57610e5e82610e59600a866114af565b610e6f565b610e688184610e6f565b5050505050565b8060025f828254610e80919061156c565b90915550506001600160a01b0382165f818152600360209081526040808320805486019055518481527fddf252ad1be2c89b69c2b068fc378daa952ba7f163c4a11628f55a4df523b3ef910160405180910390a35050565b5f81518084528060208401602086015e5f602082860101526020601f19601f83011685010191505092915050565b602081525f610f186020830184610ed8565b9392505050565b6001600160a01b0381168114610f33575f80fd5b50565b5f8060408385031215610f47575f80fd5b8235610f5281610f1f565b946020939093013593505050565b5f8060408385031215610f71575f80fd5b8235610f7c81610f1f565b91506020830135610f8c81610f1f565b809150509250929050565b5f805f60608486031215610fa9575f80fd5b8335610fb481610f1f565b92506020840135610fc481610f1f565b929592945050506040919091013590565b5f60a08284031215610fe5575f80fd5b50919050565b5f60608284031215610fe5575f80fd5b5f8083601f84011261100b575f80fd5b50813567ffffffffffffffff811115611022575f80fd5b602083019150836020828501011115611039575f80fd5b9250929050565b5f805f805f6101408688031215611055575f80fd5b853561106081610f1f565b945061106f8760208801610fd5565b935061107e8760c08801610feb565b925061012086013567ffffffffffffffff81111561109a575f80fd5b6110a688828901610ffb565b969995985093965092949392505050565b5f805f805f61010086880312156110cc575f80fd5b85356110d781610f1f565b94506110e68760208801610fd5565b935060c08601356110f681610f1f565b925060e086013567ffffffffffffffff81111561109a575f80fd5b5f60208284031215611121575f80fd5b8135610f1881610f1f565b5f805f805f806101208789031215611142575f80fd5b863561114d81610f1f565b955061115c8860208901610fd5565b945060c087013561116c81610f1f565b935060e0870135600281900b8114611182575f80fd5b925061010087013567ffffffffffffffff81111561119e575f80fd5b6111aa89828a01610ffb565b979a9699509497509295939492505050565b5f80602083850312156111cd575f80fd5b823567ffffffffffffffff8111156111e3575f80fd5b6111ef85828601610ffb565b90969095509350505050565b5f805f805f806101608789031215611211575f80fd5b863561121c81610f1f565b955061122b8860208901610fd5565b945061123a8860c08901610feb565b9350610120870135925061014087013567ffffffffffffffff81111561119e575f80fd5b5f805f805f806101208789031215611274575f80fd5b863561127f81610f1f565b955061128e8860208901610fd5565b945060c0870135935060e0870135925061010087013567ffffffffffffffff81111561119e575f80fd5b815115158152610140810160208301516112d6602084018215159052565b5060408301516112ea604084018215159052565b5060608301516112fe606084018215159052565b506080830151611312608084018215159052565b5060a083015161132660a084018215159052565b5060c083015161133a60c084018215159052565b5060e083015161134e60e084018215159052565b5061010083810151151590830152610120928301511515929091019190915290565b5f805f805f805f60e0888a031215611386575f80fd5b873561139181610f1f565b965060208801356113a181610f1f565b95506040880135945060608801359350608088013560ff811681146113c4575f80fd5b9699959850939692959460a0840135945060c09093013592915050565b600181811c908216806113f557607f821691505b602082108103610fe557634e487b7160e01b5f52602260045260245ffd5b634e487b7160e01b5f52601160045260245ffd5b8181038181111561061257610612611413565b818382375f9101908152919050565b5f60208284031215611459575f80fd5b81358015158114610f18575f80fd5b5f81600f0b6f7fffffffffffffffffffffffffffffff19810361148d5761148d611413565b5f0392915050565b5f600160ff1b82016114a9576114a9611413565b505f0390565b5f826114c957634e487b7160e01b5f52601260045260245ffd5b500490565b5f8083545f60018260011c915060018316806114eb57607f831692505b6020808410820361150a57634e487b7160e01b5f52602260045260245ffd5b81801561151e57600181146115335761155e565b60ff198616895284151585028901965061155e565b5f8a8152602090205f5b868110156115565781548b82015290850190830161153d565b505084890196505b509498975050505050505050565b808201808211156106125761061261141356fea2646970667358221220d6c6e7879221a8ad298cbf71727f3c78334eeb48a98ac994b54095fd38ccb0ce64736f6c63430008190033","linkReferences":{}},"methodIdentifiers":{"DOMAIN_SEPARATOR()":"3644e515","POINTS_FOR_REFERRAL()":"45865829","afterAddLiquidity(address,(address,address,uint24,int24,address),(int24,int24,int256),int256,bytes)":"b505b4ce","afterDonate(address,(address,address,uint24,int24,address),uint256,uint256,bytes)":"e1b4af69","afterInitialize(address,(address,address,uint24,int24,address),uint160,int24,bytes)":"a910f80f","afterRemoveLiquidity(address,(address,address,uint24,int24,address),(int24,int24,int256),int256,bytes)":"c3d5d4e6","afterSwap(address,(address,address,uint24,int24,address),(bool,int256,uint160),int256,bytes)":"b47b2fb1","allowance(address,address)":"dd62ed3e","approve(address,uint256)":"095ea7b3","balanceOf(address)":"70a08231","beforeAddLiquidity(address,(address,address,uint24,int24,address),(int24,int24,int256),bytes)":"a6ab2a43","beforeDonate(address,(address,address,uint24,int24,address),uint256,uint256,bytes)":"b6a8b0fa","beforeInitialize(address,(address,address,uint24,int24,address),uint160,bytes)":"3440d820","beforeRemoveLiquidity(address,(address,address,uint24,int24,address),(int24,int24,int256),bytes)":"2b58404e","beforeSwap(address,(address,address,uint24,int24,address),(bool,int256,uint160),bytes)":"575e24b4","decimals()":"313ce567","getHookData(address,address)":"1783e865","getHookPermissions()":"c4e833ce","lockAcquired(bytes)":"ab6291fe","name()":"06fdde03","nonces(address)":"7ecebe00","permit(address,address,uint256,uint256,uint8,bytes32,bytes32)":"d505accf","poolManager()":"dc4c90d3","referredBy(address)":"a90f8e9a","symbol()":"95d89b41","totalSupply()":"18160ddd","transfer(address,uint256)":"a9059cbb","transferFrom(address,address,uint256)":"23b872dd"},"id":71}