{"abi":[{"type":"function","name":"SQRT_RATIO_121_100","inputs":[],"outputs":[{"name":"","type":"uint160","internalType":"uint160"}],"stateMutability":"view"},{"type":"function","name":"SQRT_RATIO_1_1","inputs":[],"outputs":[{"name":"","type":"uint160","internalType":"uint160"}],"stateMutability":"view"},{"type":"function","name":"SQRT_RATIO_1_2","inputs":[],"outputs":[{"name":"","type":"uint160","internalType":"uint160"}],"stateMutability":"view"},{"type":"function","name":"SQRT_RATIO_1_4","inputs":[],"outputs":[{"name":"","type":"uint160","internalType":"uint160"}],"stateMutability":"view"},{"type":"function","name":"SQRT_RATIO_2_1","inputs":[],"outputs":[{"name":"","type":"uint160","internalType":"uint160"}],"stateMutability":"view"},{"type":"function","name":"SQRT_RATIO_4_1","inputs":[],"outputs":[{"name":"","type":"uint160","internalType":"uint160"}],"stateMutability":"view"}],"bytecode":{"object":"0x610153610034600b8282823980515f1a607314602857634e487b7160e01b5f525f60045260245ffd5b305f52607381538281f3fe730000000000000000000000000000000000000000301460806040526004361061007a575f3560e01c8063d6d2a04b11610058578063d6d2a04b146100e1578063dd431c4b146100f5578063e239ea4214610109575f80fd5b80630b84e81c1461007e57806377267b1e146100ba578063d1b7d611146100ce575b5f80fd5b6100916bb504f333f9de6484597d89b381565b60405173ffffffffffffffffffffffffffffffffffffffff909116815260200160405180910390f35b6100916c0100000000000000000000000081565b6100916b80000000000000000000000081565b6100916c016a09e667f3bcc908b2fb136681565b6100916c0200000000000000000000000081565b6100916c011999999999999999999999998156fea2646970667358221220677213e42cfcf834572f3eecf3d96cafb592259a1aeb8c648f98dd568bb46dac64736f6c63430008190033","linkReferences":{}},"methodIdentifiers":{"SQRT_RATIO_121_100()":"e239ea42","SQRT_RATIO_1_1()":"77267b1e","SQRT_RATIO_1_2()":"0b84e81c","SQRT_RATIO_1_4()":"d1b7d611","SQRT_RATIO_2_1()":"d6d2a04b","SQRT_RATIO_4_1()":"dd431c4b"},"id":68}