{"abi":[{"type":"constructor","inputs":[{"name":"controllerGasLimit","type":"uint256","internalType":"uint256"}],"stateMutability":"nonpayable"},{"type":"receive","stateMutability":"payable"},{"type":"function","name":"MAX_TICK_SPACING","inputs":[],"outputs":[{"name":"","type":"int24","internalType":"int24"}],"stateMutability":"view"},{"type":"function","name":"MIN_PROTOCOL_FEE_DENOMINATOR","inputs":[],"outputs":[{"name":"","type":"uint8","internalType":"uint8"}],"stateMutability":"view"},{"type":"function","name":"MIN_TICK_SPACING","inputs":[],"outputs":[{"name":"","type":"int24","internalType":"int24"}],"stateMutability":"view"},{"type":"function","name":"allowance","inputs":[{"name":"","type":"address","internalType":"address"},{"name":"","type":"address","internalType":"address"},{"name":"","type":"uint256","internalType":"uint256"}],"outputs":[{"name":"","type":"uint256","internalType":"uint256"}],"stateMutability":"view"},{"type":"function","name":"approve","inputs":[{"name":"spender","type":"address","internalType":"address"},{"name":"id","type":"uint256","internalType":"uint256"},{"name":"amount","type":"uint256","internalType":"uint256"}],"outputs":[{"name":"","type":"bool","internalType":"bool"}],"stateMutability":"nonpayable"},{"type":"function","name":"balanceOf","inputs":[{"name":"","type":"address","internalType":"address"},{"name":"","type":"uint256","internalType":"uint256"}],"outputs":[{"name":"","type":"uint256","internalType":"uint256"}],"stateMutability":"view"},{"type":"function","name":"burn","inputs":[{"name":"from","type":"address","internalType":"address"},{"name":"id","type":"uint256","internalType":"uint256"},{"name":"amount","type":"uint256","internalType":"uint256"}],"outputs":[],"stateMutability":"nonpayable"},{"type":"function","name":"collectProtocolFees","inputs":[{"name":"recipient","type":"address","internalType":"address"},{"name":"currency","type":"address","internalType":"Currency"},{"name":"amount","type":"uint256","internalType":"uint256"}],"outputs":[{"name":"amountCollected","type":"uint256","internalType":"uint256"}],"stateMutability":"nonpayable"},{"type":"function","name":"currencyDelta","inputs":[{"name":"caller","type":"address","internalType":"address"},{"name":"currency","type":"address","internalType":"Currency"}],"outputs":[{"name":"currencyDelta","type":"int256","internalType":"int256"}],"stateMutability":"view"},{"type":"function","name":"donate","inputs":[{"name":"key","type":"tuple","internalType":"struct PoolKey","components":[{"name":"currency0","type":"address","internalType":"Currency"},{"name":"currency1","type":"address","internalType":"Currency"},{"name":"fee","type":"uint24","internalType":"uint24"},{"name":"tickSpacing","type":"int24","internalType":"int24"},{"name":"hooks","type":"address","internalType":"contract IHooks"}]},{"name":"amount0","type":"uint256","internalType":"uint256"},{"name":"amount1","type":"uint256","internalType":"uint256"},{"name":"hookData","type":"bytes","internalType":"bytes"}],"outputs":[{"name":"delta","type":"int256","internalType":"BalanceDelta"}],"stateMutability":"nonpayable"},{"type":"function","name":"extsload","inputs":[{"name":"slot","type":"bytes32","internalType":"bytes32"}],"outputs":[{"name":"value","type":"bytes32","internalType":"bytes32"}],"stateMutability":"view"},{"type":"function","name":"extsload","inputs":[{"name":"startSlot","type":"bytes32","internalType":"bytes32"},{"name":"nSlots","type":"uint256","internalType":"uint256"}],"outputs":[{"name":"","type":"bytes","internalType":"bytes"}],"stateMutability":"view"},{"type":"function","name":"getLiquidity","inputs":[{"name":"id","type":"bytes32","internalType":"PoolId"},{"name":"_owner","type":"address","internalType":"address"},{"name":"tickLower","type":"int24","internalType":"int24"},{"name":"tickUpper","type":"int24","internalType":"int24"}],"outputs":[{"name":"liquidity","type":"uint128","internalType":"uint128"}],"stateMutability":"view"},{"type":"function","name":"getLiquidity","inputs":[{"name":"id","type":"bytes32","internalType":"PoolId"}],"outputs":[{"name":"liquidity","type":"uint128","internalType":"uint128"}],"stateMutability":"view"},{"type":"function","name":"getLockNonzeroDeltaCount","inputs":[],"outputs":[{"name":"_nonzeroDeltaCount","type":"uint256","internalType":"uint256"}],"stateMutability":"view"},{"type":"function","name":"getPoolBitmapInfo","inputs":[{"name":"id","type":"bytes32","internalType":"PoolId"},{"name":"word","type":"int16","internalType":"int16"}],"outputs":[{"name":"tickBitmap","type":"uint256","internalType":"uint256"}],"stateMutability":"view"},{"type":"function","name":"getPoolTickInfo","inputs":[{"name":"id","type":"bytes32","internalType":"PoolId"},{"name":"tick","type":"int24","internalType":"int24"}],"outputs":[{"name":"","type":"tuple","internalType":"struct Pool.TickInfo","components":[{"name":"liquidityGross","type":"uint128","internalType":"uint128"},{"name":"liquidityNet","type":"int128","internalType":"int128"},{"name":"feeGrowthOutside0X128","type":"uint256","internalType":"uint256"},{"name":"feeGrowthOutside1X128","type":"uint256","internalType":"uint256"}]}],"stateMutability":"view"},{"type":"function","name":"getPosition","inputs":[{"name":"id","type":"bytes32","internalType":"PoolId"},{"name":"_owner","type":"address","internalType":"address"},{"name":"tickLower","type":"int24","internalType":"int24"},{"name":"tickUpper","type":"int24","internalType":"int24"}],"outputs":[{"name":"position","type":"tuple","internalType":"struct Position.Info","components":[{"name":"liquidity","type":"uint128","internalType":"uint128"},{"name":"feeGrowthInside0LastX128","type":"uint256","internalType":"uint256"},{"name":"feeGrowthInside1LastX128","type":"uint256","internalType":"uint256"}]}],"stateMutability":"view"},{"type":"function","name":"getSlot0","inputs":[{"name":"id","type":"bytes32","internalType":"PoolId"}],"outputs":[{"name":"sqrtPriceX96","type":"uint160","internalType":"uint160"},{"name":"tick","type":"int24","internalType":"int24"},{"name":"protocolFee","type":"uint16","internalType":"uint16"},{"name":"swapFee","type":"uint24","internalType":"uint24"}],"stateMutability":"view"},{"type":"function","name":"initialize","inputs":[{"name":"key","type":"tuple","internalType":"struct PoolKey","components":[{"name":"currency0","type":"address","internalType":"Currency"},{"name":"currency1","type":"address","internalType":"Currency"},{"name":"fee","type":"uint24","internalType":"uint24"},{"name":"tickSpacing","type":"int24","internalType":"int24"},{"name":"hooks","type":"address","internalType":"contract IHooks"}]},{"name":"sqrtPriceX96","type":"uint160","internalType":"uint160"},{"name":"hookData","type":"bytes","internalType":"bytes"}],"outputs":[{"name":"tick","type":"int24","internalType":"int24"}],"stateMutability":"nonpayable"},{"type":"function","name":"isLockSet","inputs":[],"outputs":[{"name":"","type":"bool","internalType":"bool"}],"stateMutability":"view"},{"type":"function","name":"isOperator","inputs":[{"name":"","type":"address","internalType":"address"},{"name":"","type":"address","internalType":"address"}],"outputs":[{"name":"","type":"bool","internalType":"bool"}],"stateMutability":"view"},{"type":"function","name":"lock","inputs":[{"name":"data","type":"bytes","internalType":"bytes"}],"outputs":[{"name":"result","type":"bytes","internalType":"bytes"}],"stateMutability":"payable"},{"type":"function","name":"mint","inputs":[{"name":"to","type":"address","internalType":"address"},{"name":"id","type":"uint256","internalType":"uint256"},{"name":"amount","type":"uint256","internalType":"uint256"}],"outputs":[],"stateMutability":"nonpayable"},{"type":"function","name":"modifyLiquidity","inputs":[{"name":"key","type":"tuple","internalType":"struct PoolKey","components":[{"name":"currency0","type":"address","internalType":"Currency"},{"name":"currency1","type":"address","internalType":"Currency"},{"name":"fee","type":"uint24","internalType":"uint24"},{"name":"tickSpacing","type":"int24","internalType":"int24"},{"name":"hooks","type":"address","internalType":"contract IHooks"}]},{"name":"params","type":"tuple","internalType":"struct IPoolManager.ModifyLiquidityParams","components":[{"name":"tickLower","type":"int24","internalType":"int24"},{"name":"tickUpper","type":"int24","internalType":"int24"},{"name":"liquidityDelta","type":"int256","internalType":"int256"}]},{"name":"hookData","type":"bytes","internalType":"bytes"}],"outputs":[{"name":"delta","type":"int256","internalType":"BalanceDelta"}],"stateMutability":"nonpayable"},{"type":"function","name":"owner","inputs":[],"outputs":[{"name":"","type":"address","internalType":"address"}],"stateMutability":"view"},{"type":"function","name":"pools","inputs":[{"name":"id","type":"bytes32","internalType":"PoolId"}],"outputs":[{"name":"slot0","type":"tuple","internalType":"struct Pool.Slot0","components":[{"name":"sqrtPriceX96","type":"uint160","internalType":"uint160"},{"name":"tick","type":"int24","internalType":"int24"},{"name":"protocolFee","type":"uint16","internalType":"uint16"},{"name":"swapFee","type":"uint24","internalType":"uint24"}]},{"name":"feeGrowthGlobal0X128","type":"uint256","internalType":"uint256"},{"name":"feeGrowthGlobal1X128","type":"uint256","internalType":"uint256"},{"name":"liquidity","type":"uint128","internalType":"uint128"}],"stateMutability":"view"},{"type":"function","name":"protocolFeeController","inputs":[],"outputs":[{"name":"","type":"address","internalType":"contract IProtocolFeeController"}],"stateMutability":"view"},{"type":"function","name":"protocolFeesAccrued","inputs":[{"name":"currency","type":"address","internalType":"Currency"}],"outputs":[{"name":"","type":"uint256","internalType":"uint256"}],"stateMutability":"view"},{"type":"function","name":"reservesOf","inputs":[{"name":"currency","type":"address","internalType":"Currency"}],"outputs":[{"name":"","type":"uint256","internalType":"uint256"}],"stateMutability":"view"},{"type":"function","name":"setOperator","inputs":[{"name":"operator","type":"address","internalType":"address"},{"name":"approved","type":"bool","internalType":"bool"}],"outputs":[{"name":"","type":"bool","internalType":"bool"}],"stateMutability":"nonpayable"},{"type":"function","name":"setOwner","inputs":[{"name":"_owner","type":"address","internalType":"address"}],"outputs":[],"stateMutability":"nonpayable"},{"type":"function","name":"setProtocolFee","inputs":[{"name":"key","type":"tuple","internalType":"struct PoolKey","components":[{"name":"currency0","type":"address","internalType":"Currency"},{"name":"currency1","type":"address","internalType":"Currency"},{"name":"fee","type":"uint24","internalType":"uint24"},{"name":"tickSpacing","type":"int24","internalType":"int24"},{"name":"hooks","type":"address","internalType":"contract IHooks"}]}],"outputs":[],"stateMutability":"nonpayable"},{"type":"function","name":"setProtocolFeeController","inputs":[{"name":"controller","type":"address","internalType":"contract IProtocolFeeController"}],"outputs":[],"stateMutability":"nonpayable"},{"type":"function","name":"settle","inputs":[{"name":"currency","type":"address","internalType":"Currency"}],"outputs":[{"name":"paid","type":"uint256","internalType":"uint256"}],"stateMutability":"payable"},{"type":"function","name":"supportsInterface","inputs":[{"name":"interfaceId","type":"bytes4","internalType":"bytes4"}],"outputs":[{"name":"","type":"bool","internalType":"bool"}],"stateMutability":"view"},{"type":"function","name":"swap","inputs":[{"name":"key","type":"tuple","internalType":"struct PoolKey","components":[{"name":"currency0","type":"address","internalType":"Currency"},{"name":"currency1","type":"address","internalType":"Currency"},{"name":"fee","type":"uint24","internalType":"uint24"},{"name":"tickSpacing","type":"int24","internalType":"int24"},{"name":"hooks","type":"address","internalType":"contract IHooks"}]},{"name":"params","type":"tuple","internalType":"struct IPoolManager.SwapParams","components":[{"name":"zeroForOne","type":"bool","internalType":"bool"},{"name":"amountSpecified","type":"int256","internalType":"int256"},{"name":"sqrtPriceLimitX96","type":"uint160","internalType":"uint160"}]},{"name":"hookData","type":"bytes","internalType":"bytes"}],"outputs":[{"name":"delta","type":"int256","internalType":"BalanceDelta"}],"stateMutability":"nonpayable"},{"type":"function","name":"take","inputs":[{"name":"currency","type":"address","internalType":"Currency"},{"name":"to","type":"address","internalType":"address"},{"name":"amount","type":"uint256","internalType":"uint256"}],"outputs":[],"stateMutability":"nonpayable"},{"type":"function","name":"transfer","inputs":[{"name":"receiver","type":"address","internalType":"address"},{"name":"id","type":"uint256","internalType":"uint256"},{"name":"amount","type":"uint256","internalType":"uint256"}],"outputs":[{"name":"","type":"bool","internalType":"bool"}],"stateMutability":"nonpayable"},{"type":"function","name":"transferFrom","inputs":[{"name":"sender","type":"address","internalType":"address"},{"name":"receiver","type":"address","internalType":"address"},{"name":"id","type":"uint256","internalType":"uint256"},{"name":"amount","type":"uint256","internalType":"uint256"}],"outputs":[{"name":"","type":"bool","internalType":"bool"}],"stateMutability":"nonpayable"},{"type":"function","name":"updateDynamicSwapFee","inputs":[{"name":"key","type":"tuple","internalType":"struct PoolKey","components":[{"name":"currency0","type":"address","internalType":"Currency"},{"name":"currency1","type":"address","internalType":"Currency"},{"name":"fee","type":"uint24","internalType":"uint24"},{"name":"tickSpacing","type":"int24","internalType":"int24"},{"name":"hooks","type":"address","internalType":"contract IHooks"}]},{"name":"newDynamicSwapFee","type":"uint24","internalType":"uint24"}],"outputs":[],"stateMutability":"nonpayable"},{"type":"event","name":"Approval","inputs":[{"name":"owner","type":"address","indexed":true,"internalType":"address"},{"name":"spender","type":"address","indexed":true,"internalType":"address"},{"name":"id","type":"uint256","indexed":true,"internalType":"uint256"},{"name":"amount","type":"uint256","indexed":false,"internalType":"uint256"}],"anonymous":false},{"type":"event","name":"Initialize","inputs":[{"name":"id","type":"bytes32","indexed":true,"internalType":"PoolId"},{"name":"currency0","type":"address","indexed":true,"internalType":"Currency"},{"name":"currency1","type":"address","indexed":true,"internalType":"Currency"},{"name":"fee","type":"uint24","indexed":false,"internalType":"uint24"},{"name":"tickSpacing","type":"int24","indexed":false,"internalType":"int24"},{"name":"hooks","type":"address","indexed":false,"internalType":"contract IHooks"}],"anonymous":false},{"type":"event","name":"ModifyLiquidity","inputs":[{"name":"id","type":"bytes32","indexed":true,"internalType":"PoolId"},{"name":"sender","type":"address","indexed":true,"internalType":"address"},{"name":"tickLower","type":"int24","indexed":false,"internalType":"int24"},{"name":"tickUpper","type":"int24","indexed":false,"internalType":"int24"},{"name":"liquidityDelta","type":"int256","indexed":false,"internalType":"int256"}],"anonymous":false},{"type":"event","name":"OperatorSet","inputs":[{"name":"owner","type":"address","indexed":true,"internalType":"address"},{"name":"operator","type":"address","indexed":true,"internalType":"address"},{"name":"approved","type":"bool","indexed":false,"internalType":"bool"}],"anonymous":false},{"type":"event","name":"OwnerChanged","inputs":[{"name":"oldOwner","type":"address","indexed":true,"internalType":"address"},{"name":"newOwner","type":"address","indexed":true,"internalType":"address"}],"anonymous":false},{"type":"event","name":"ProtocolFeeControllerUpdated","inputs":[{"name":"protocolFeeController","type":"address","indexed":false,"internalType":"address"}],"anonymous":false},{"type":"event","name":"ProtocolFeeUpdated","inputs":[{"name":"id","type":"bytes32","indexed":true,"internalType":"PoolId"},{"name":"protocolFee","type":"uint16","indexed":false,"internalType":"uint16"}],"anonymous":false},{"type":"event","name":"Swap","inputs":[{"name":"id","type":"bytes32","indexed":true,"internalType":"PoolId"},{"name":"sender","type":"address","indexed":true,"internalType":"address"},{"name":"amount0","type":"int128","indexed":false,"internalType":"int128"},{"name":"amount1","type":"int128","indexed":false,"internalType":"int128"},{"name":"sqrtPriceX96","type":"uint160","indexed":false,"internalType":"uint160"},{"name":"liquidity","type":"uint128","indexed":false,"internalType":"uint128"},{"name":"tick","type":"int24","indexed":false,"internalType":"int24"},{"name":"fee","type":"uint24","indexed":false,"internalType":"uint24"}],"anonymous":false},{"type":"event","name":"Transfer","inputs":[{"name":"caller","type":"address","indexed":false,"internalType":"address"},{"name":"from","type":"address","indexed":true,"internalType":"address"},{"name":"to","type":"address","indexed":true,"internalType":"address"},{"name":"id","type":"uint256","indexed":true,"internalType":"uint256"},{"name":"amount","type":"uint256","indexed":false,"internalType":"uint256"}],"anonymous":false},{"type":"error","name":"AlreadyLocked","inputs":[]},{"type":"error","name":"CannotUpdateEmptyPosition","inputs":[]},{"type":"error","name":"CurrenciesOutOfOrderOrEqual","inputs":[]},{"type":"error","name":"CurrencyNotSettled","inputs":[]},{"type":"error","name":"DelegateCallNotAllowed","inputs":[]},{"type":"error","name":"ERC20TransferFailed","inputs":[]},{"type":"error","name":"FailedHookCall","inputs":[]},{"type":"error","name":"FeeNotDynamic","inputs":[]},{"type":"error","name":"FeeTooLarge","inputs":[]},{"type":"error","name":"HookAddressNotValid","inputs":[{"name":"hooks","type":"address","internalType":"address"}]},{"type":"error","name":"InvalidCaller","inputs":[]},{"type":"error","name":"InvalidHookResponse","inputs":[]},{"type":"error","name":"InvalidPrice","inputs":[]},{"type":"error","name":"InvalidPriceOrLiquidity","inputs":[]},{"type":"error","name":"InvalidSqrtRatio","inputs":[]},{"type":"error","name":"InvalidTick","inputs":[]},{"type":"error","name":"ManagerNotLocked","inputs":[]},{"type":"error","name":"MaxCurrenciesTouched","inputs":[]},{"type":"error","name":"NativeTransferFailed","inputs":[]},{"type":"error","name":"NoLiquidityToReceiveFees","inputs":[]},{"type":"error","name":"NotEnoughLiquidity","inputs":[]},{"type":"error","name":"NotPoolManagerToken","inputs":[]},{"type":"error","name":"PoolAlreadyInitialized","inputs":[]},{"type":"error","name":"PoolNotInitialized","inputs":[]},{"type":"error","name":"PoolNotInitialized","inputs":[]},{"type":"error","name":"PriceLimitAlreadyExceeded","inputs":[{"name":"sqrtPriceCurrentX96","type":"uint160","internalType":"uint160"},{"name":"sqrtPriceLimitX96","type":"uint160","internalType":"uint160"}]},{"type":"error","name":"PriceLimitOutOfBounds","inputs":[{"name":"sqrtPriceLimitX96","type":"uint160","internalType":"uint160"}]},{"type":"error","name":"PriceOverflow","inputs":[]},{"type":"error","name":"ProtocolFeeCannotBeFetched","inputs":[]},{"type":"error","name":"ProtocolFeeControllerCallFailedOrInvalidResult","inputs":[]},{"type":"error","name":"SafeCastOverflow","inputs":[]},{"type":"error","name":"SwapAmountCannotBeZero","inputs":[]},{"type":"error","name":"TickLiquidityOverflow","inputs":[{"name":"tick","type":"int24","internalType":"int24"}]},{"type":"error","name":"TickLowerOutOfBounds","inputs":[{"name":"tickLower","type":"int24","internalType":"int24"}]},{"type":"error","name":"TickMisaligned","inputs":[{"name":"tick","type":"int24","internalType":"int24"},{"name":"tickSpacing","type":"int24","internalType":"int24"}]},{"type":"error","name":"TickSpacingTooLarge","inputs":[]},{"type":"error","name":"TickSpacingTooSmall","inputs":[]},{"type":"error","name":"TickUpperOutOfBounds","inputs":[{"name":"tickUpper","type":"int24","internalType":"int24"}]},{"type":"error","name":"TicksMisordered","inputs":[{"name":"tickLower","type":"int24","internalType":"int24"},{"name":"tickUpper","type":"int24","internalType":"int24"}]},{"type":"error","name":"UnauthorizedDynamicSwapFeeUpdate","inputs":[]}],"bytecode":{"object":"0x60c0604052348015600e575f80fd5b50604051615a2d380380615a2d833981016040819052602b916075565b5f80546001600160a01b0319163390811782556040518392907fb532073b38c83145e3e5135377a08bf9aab55bc0fd7c1179cd4fb995d2a5159c908290a3608052503060a052608b565b5f602082840312156084575f80fd5b5051919050565b60805160a05161597a6100b35f395f611b2701525f81816120dc0152612133015261597a5ff3fe6080604052600436106102b8575f3560e01c80636a256b2911610170578063b02375ce116100d1578063d9b054b411610087578063f5298aca11610062578063f5298aca14610a55578063fa6793d514610a74578063fe99049a14610aab575f80fd5b8063d9b054b414610a03578063f02de3b214610a17578063f3cd914c14610a36575f80fd5b8063b6363cf2116100b7578063b6363cf2146108f2578063bec999dd1461092b578063c815641c1461094a575f80fd5b8063b02375ce146107de578063b5217bb4146107fd575f80fd5b80638da5cb5b1161012657806397e8cd4e1161010c57806397e8cd4e1461075e578063a412b9d814610789578063a54b2831146107a8575f80fd5b80638da5cb5b146106fd57806393c85a2114610733575f80fd5b8063815483191161015657806381548319146106a55780638161b874146106b857806384e41c5e146106d7575f80fd5b80636a256b29146106735780637c352ef614610686575f80fd5b80632d7713891161021a578063558a7297116101d05780635aa208a4116101b65780635aa208a4146105e157806360460f061461063f578063695c5bf514610654575f80fd5b8063558a729714610586578063598af9e7146105a5575f80fd5b806335fd631a1161020057806335fd631a14610527578063426a84931461055357806346063d0514610572575f80fd5b80632d7713891461046757806333aa955b14610486575f80fd5b80630b0d9c091161026f578063156e29f611610255578063156e29f61461040b5780631e2eaeaf1461042a578063234266d714610448575f80fd5b80630b0d9c09146103cb57806313af4035146103ec575f80fd5b8063048d9c701161029f578063048d9c701461033b57806307eff0dd14610385578063095bcdb6146103ac575f80fd5b8062fdd58e146102c357806301ffc9a71461030c575f80fd5b366102bf57005b5f80fd5b3480156102ce575f80fd5b506102f96102dd366004614bc1565b600460209081525f928352604080842090915290825290205481565b6040519081526020015b60405180910390f35b348015610317575f80fd5b5061032b610326366004614c00565b610aca565b6040519015158152602001610303565b348015610346575f80fd5b5061035a610355366004614c2c565b610b00565b6040805182516001600160801b03168152602080840151908201529181015190820152606001610303565b348015610390575f80fd5b50610399600181565b60405160029190910b8152602001610303565b3480156103b7575f80fd5b5061032b6103c6366004614c78565b610bbd565b3480156103d6575f80fd5b506103ea6103e5366004614caa565b610c77565b005b3480156103f7575f80fd5b506103ea610406366004614ce8565b610d05565b348015610416575f80fd5b506103ea610425366004614c78565b610d95565b348015610435575f80fd5b506102f9610444366004614d03565b5490565b348015610453575f80fd5b506102f9610462366004614e44565b610dda565b348015610472575f80fd5b506103ea610481366004614ce8565b610e83565b348015610491575f80fd5b5061050f6104a0366004614c2c565b5f938452600860209081526040808620815160609690961b6bffffffffffffffffffffffff19168684015260e894851b60348701529290931b60378501528251601a818603018152603a909401835283519381019390932084526006019091529020546001600160801b031690565b6040516001600160801b039091168152602001610303565b348015610532575f80fd5b50610546610541366004614ea9565b610f0e565b6040516103039190614ec9565b34801561055e575f80fd5b5061032b61056d366004614c78565b610f8c565b34801561057d575f80fd5b506102f9610ff0565b348015610591575f80fd5b5061032b6105a0366004614f0d565b610ffe565b3480156105b0575f80fd5b506102f96105bf366004614caa565b600560209081525f938452604080852082529284528284209052825290205481565b3480156105ec575f80fd5b506106006105fb366004614f40565b61106d565b604051610303919081516001600160801b03168152602080830151600f0b90820152604080830151908201526060918201519181019190915260800190565b34801561064a575f80fd5b50610399617fff81565b34801561065f575f80fd5b5061039961066e366004614f61565b61110a565b6102f9610681366004614ce8565b611305565b348015610691575f80fd5b506102f96106a0366004614fc1565b61138f565b6105466106b3366004614ff4565b6113b4565b3480156106c3575f80fd5b506102f96106d2366004614caa565b61147b565b3480156106e2575f80fd5b506106eb600481565b60405160ff9091168152602001610303565b348015610708575f80fd5b505f5461071b906001600160a01b031681565b6040516001600160a01b039091168152602001610303565b34801561073e575f80fd5b506102f961074d366004614ce8565b60076020525f908152604090205481565b348015610769575f80fd5b506102f9610778366004614ce8565b60016020525f908152604090205481565b348015610794575f80fd5b506103ea6107a3366004615033565b611513565b3480156107b3575f80fd5b506102f96107c236600461505c565b600660209081525f928352604080842090915290825290205481565b3480156107e9575f80fd5b506103ea6107f8366004615088565b61158f565b348015610808575f80fd5b50610890610817366004614d03565b600860209081525f918252604091829020825160808101845281546001600160a01b0381168252600160a01b8104600290810b94830194909452600160b81b810461ffff1694820194909452600160c81b90930462ffffff1660608401526001810154918101546003909101546001600160801b031684565b6040805185516001600160a01b0316815260208087015160020b908201528582015161ffff169181019190915260609485015162ffffff1694810194909452608084019290925260a08301526001600160801b031660c082015260e001610303565b3480156108fd575f80fd5b5061032b61090c36600461505c565b600360209081525f928352604080842090915290825290205460ff1681565b348015610936575f80fd5b506102f96109453660046150a2565b61161f565b348015610955575f80fd5b506109c8610964366004614d03565b5f90815260086020908152604091829020825160808101845290546001600160a01b038116808352600160a01b820460020b938301849052600160b81b820461ffff16948301859052600160c81b90910462ffffff16606090920182905293919291565b604080516001600160a01b03909516855260029390930b602085015261ffff9091169183019190915262ffffff166060820152608001610303565b348015610a0e575f80fd5b5061032b611776565b348015610a22575f80fd5b5060025461071b906001600160a01b031681565b348015610a41575f80fd5b506102f9610a50366004615122565b61177f565b348015610a60575f80fd5b506103ea610a6f366004614c78565b611966565b348015610a7f575f80fd5b5061050f610a8e366004614d03565b5f908152600860205260409020600301546001600160801b031690565b348015610ab6575f80fd5b5061032b610ac53660046151a4565b6119ab565b5f6301ffc9a760e01b6001600160e01b031983161480610afa5750630f632fb360e01b6001600160e01b03198316145b92915050565b610b2a60405180606001604052805f6001600160801b031681526020015f81526020015f81525090565b5f85815260086020908152604080832081516bffffffffffffffffffffffff1960608a901b168185015260e888811b603483015287901b60378201528251808203601a018152603a9091018352805190840120845260060190915290206040805160608101825282546001600160801b03168152600183015460208201526002909201549082015290505b949350505050565b335f908152600460209081526040808320858452909152812080548391908390610be89084906151fb565b90915550506001600160a01b0384165f90815260046020908152604080832086845290915281208054849290610c1f90849061520e565b909155505060408051338082526020820185905285926001600160a01b038816927f1b3d7edb2e9c0b0e7c525b20aaaef0f5940d2ed71663c7d39266ecafac72885991015b60405180910390a45060015b9392505050565b610c7f611b1c565b610c87611b67565b610ca45760405163eab072a760e01b815260040160405180910390fd5b610cbf83610cb183611b9b565b610cba90615221565b611bd1565b6001600160a01b0383165f9081526007602052604081208054839290610ce69084906151fb565b90915550610d0090506001600160a01b0384168383611c64565b505050565b5f546001600160a01b03163314610d2f576040516348f5c3ed60e01b815260040160405180910390fd5b5f80546040516001600160a01b03808516939216917fb532073b38c83145e3e5135377a08bf9aab55bc0fd7c1179cd4fb995d2a5159c91a35f805473ffffffffffffffffffffffffffffffffffffffff19166001600160a01b0392909216919091179055565b610d9d611b1c565b610da5611b67565b610dc25760405163eab072a760e01b815260040160405180910390fd5b610dcf82610cb183611b9b565b610d00838383611cfc565b5f610de3611b1c565b610deb611b67565b610e085760405163eab072a760e01b815260040160405180910390fd5b5f610e1287611d81565b9050610e1d81611db0565b6080870151610e39906001600160a01b03168888888888611de7565b5f818152600860205260409020610e51908787611e76565b9150610e5d8783611f49565b6080870151610e79906001600160a01b03168888888888611f6c565b5095945050505050565b5f546001600160a01b03163314610ead576040516348f5c3ed60e01b815260040160405180910390fd5b6002805473ffffffffffffffffffffffffffffffffffffffff19166001600160a01b0383169081179091556040519081527fb4bd8ef53df690b9943d3318996006dbb82a25f54719d8c8035b516a2a5b8acc9060200160405180910390a150565b60605f610f1c83602061524e565b67ffffffffffffffff811115610f3457610f34614d1a565b6040519080825280601f01601f191660200182016040528015610f5e576020820181803683370190505b5090505f5b83811015610f84578085015460206001830102830152600181019050610f63565b509392505050565b335f8181526005602090815260408083206001600160a01b03881680855290835281842087855290925280832085905551919285927fb3fd5071835887567a0671151121894ddccc2842f1d10bedad13e0d17cace9a790610c649087815260200190565b5f610ff9611fa2565b905090565b335f8181526003602090815260408083206001600160a01b038716808552908352818420805460ff191687151590811790915591519182529293917fceb576d9f15e4e200fdb5096d64d5dfd667e16def20c1eefd14256d8e3faa267910160405180910390a350600192915050565b60408051608080820183525f8083526020808401829052838501829052606080850183905287835260088252858320865180860188528481528084018590528088018590528201849052600288810b855260049091018352928690208651948501875280546001600160801b0381168652600160801b9004600f0b9285019290925260018201549584019590955201549281019290925290610c70565b5f617fff60010b60020b856060015160020b131561113b57604051635815aee160e11b815260040160405180910390fd5b600160020b856060015160020b121561116757604051630b7f3b4b60e11b815260040160405180910390fd5b845160208601516001600160a01b039081169116106111995760405163eaa6c6eb60e01b815260040160405180910390fd5b6111bd856040015186608001516001600160a01b0316611fcf90919063ffffffff16565b6111f0576080850151604051630732d7b560e51b81526001600160a01b0390911660048201526024015b60405180910390fd5b5f611203866040015162ffffff16612014565b6080870151909150611221906001600160a01b03168787878761203c565b5f61122b87611d81565b90505f611237886120c5565b5f8481526008602052604090209092506112549150888386612244565b6080890151909450611273906001600160a01b03168989878a8a612331565b87602001516001600160a01b0316885f01516001600160a01b0316837f3fd553db44f207b1f41348cfc4d251860814af9eadc470e8e7895e4d120511f48b604001518c606001518d608001516040516112f29392919062ffffff93909316835260029190910b60208301526001600160a01b0316604082015260600190565b60405180910390a4505050949350505050565b5f61130e611b1c565b611316611b67565b6113335760405163eab072a760e01b815260040160405180910390fd5b6001600160a01b0382165f818152600760205260409020549061135590612373565b6001600160a01b0384165f90815260076020526040902081905561137a9082906151fb565b915061138983610cba84611b9b565b50919050565b5f828152600860209081526040808320600185900b8452600501909152812054610c70565b60606113be611b67565b156113dc576040516317c3335f60e21b815260040160405180910390fd5b6113e46123ef565b6040516355b148ff60e11b8152339063ab6291fe90611409908690869060040161528d565b5f604051808303815f875af1158015611424573d5f803e3d5ffd5b505050506040513d5f823e601f3d908101601f1916820160405261144b91908101906152a0565b9050611455611fa2565b1561147357604051635212cba160e01b815260040160405180910390fd5b610afa612424565b6002545f906001600160a01b031633146114a8576040516348f5c3ed60e01b815260040160405180910390fd5b81156114b457816114cd565b6001600160a01b0383165f908152600160205260409020545b6001600160a01b0384165f908152600160205260408120805492935083929091906114f99084906151fb565b90915550610c7090506001600160a01b0384168583611c64565b60408201516280000016158061153f575081608001516001600160a01b0316336001600160a01b031614155b1561155d5760405163854b0b8560e01b815260040160405180910390fd5b61156b8162ffffff16612458565b5f61157583611d81565b5f818152600860205260409020909150610d009083612480565b5f8061159a836120c5565b91509150816115bc5760405163e7ca185f60e01b815260040160405180910390fd5b5f6115c684611d81565b5f8181526008602052604090209091506115e090836124c7565b60405161ffff8316815281907f9f9496a7bce5dc5951d2db4c6bac380c9bcbcc9a4e9c18eafbcc231d06de481a9060200160405180910390a250505050565b5f611628611b1c565b611630611b67565b61164d5760405163eab072a760e01b815260040160405180910390fd5b5f61165786611d81565b905061166281611db0565b608086015161167d906001600160a01b031687878787612526565b6116e66040518060a00160405280336001600160a01b03168152602001875f015160020b8152602001876020015160020b81526020016116c088604001516125d6565b600f0b8152606089015160020b6020918201525f848152600890915260409020906125fb565b91506116f28683611f49565b845160208601516040808801519051339385937f541c041c2cce48e614b3de043c9280f06b6164c0a1741649e2de3c3d375f79749361174993600293840b81529190920b6020820152604081019190915260600190565b60405180910390a3608086015161176d906001600160a01b03168787858888612a53565b50949350505050565b5f610ff9611b67565b5f611788611b1c565b611790611b67565b6117ad5760405163eab072a760e01b815260040160405180910390fd5b5f6117b786611d81565b90506117c281611db0565b60808601516117dd906001600160a01b031687878787612b07565b6040805160c0810182525f80825260208083018290528284018290526060808401839052608080850184905260a08501849052855190810186528b82015160020b81528a511515818401528a830151818701528a8601516001600160a01b0316918101919091528583526008909152928120909283929161185d91612b4b565b929750909450925090506118718986611f49565b82156118b0578260015f8a5f015161188d578b60200151611890565b8b515b6001600160a01b0316815260208101919091526040015f20805490910190555b33847f40e9cecb9f5f1f1c5b9c97dec2917b7ee92e57ba5563708daca94dd84ad7112f6118dd8860801c90565b60408581015160a0808801516060808a01518551600f97880b8152968f900b60208801526001600160a01b03909416868601526001600160801b039091169085015260029190910b608084015262ffffff881690830152519081900360c00190a3608089015161195a906001600160a01b03168a8a888b8b613372565b50505050949350505050565b61196e611b1c565b611976611b67565b6119935760405163eab072a760e01b815260040160405180910390fd5b6119a082610cba83611b9b565b610d008383836133b8565b5f336001600160a01b038616148015906119e857506001600160a01b0385165f90815260036020908152604080832033845290915290205460ff16155b15611a58576001600160a01b0385165f90815260056020908152604080832033845282528083208684529091529020545f198114611a5657611a2a83826151fb565b6001600160a01b0387165f90815260056020908152604080832033845282528083208884529091529020555b505b6001600160a01b0385165f90815260046020908152604080832086845290915281208054849290611a8a9084906151fb565b90915550506001600160a01b0384165f90815260046020908152604080832086845290915281208054849290611ac190849061520e565b9091555050604080513381526020810184905284916001600160a01b0380881692908916917f1b3d7edb2e9c0b0e7c525b20aaaef0f5940d2ed71663c7d39266ecafac728859910160405180910390a4506001949350505050565b306001600160a01b037f00000000000000000000000000000000000000000000000000000000000000001614611b65576040516306c4a1c760e11b815260040160405180910390fd5b565b5f80611b9460017f3e061da06d9da7c1d2a497a320750161d58a0fc1d9a008f9c4f3d1606155d86f6151fb565b5c92915050565b5f6f7fffffffffffffffffffffffffffffff821115611bcd576040516393dafdf160e01b815260040160405180910390fd5b5090565b80600f0b5f03611bdf575050565b335f9081526006602090815260408083206001600160a01b038616845290915281205490611c11600f84900b8361534b565b9050805f03611c2757611c22613476565b611c36565b815f03611c3657611c366134b0565b335f9081526006602090815260408083206001600160a01b0397909716835295905293909320929092555050565b5f6001600160a01b038416611ca0575f805f8085875af1905080611c9b57604051633d2cec6f60e21b815260040160405180910390fd5b611cf6565b60405163a9059cbb60e01b5f52836004528260245260205f60445f80895af13d15601f3d1160015f511416171691505f606052806040525080611cf657604051633c9fd93960e21b815260040160405180910390fd5b50505050565b6001600160a01b0383165f90815260046020908152604080832085845290915281208054839290611d2e90849061520e565b9091555050604080513381526020810183905283916001600160a01b038616915f917f1b3d7edb2e9c0b0e7c525b20aaaef0f5940d2ed71663c7d39266ecafac72885991015b60405180910390a4505050565b5f81604051602001611d939190615372565b604051602081830303815290604052805190602001209050919050565b5f818152600860205260409020546001600160a01b0316611de45760405163486aa30760e01b815260040160405180910390fd5b50565b608085015172800000000000000000000000000000000000001615611e6e57611e6e63b6a8b0fa60e01b338787878787604051602401611e2c969594939291906153c2565b60408051601f198184030181529190526020810180516001600160e01b03166001600160e01b0319909316929092179091526001600160a01b038816906134ea565b505050505050565b60038301545f906001600160801b03168103611ea55760405163a74f97ab60e01b815260040160405180910390fd5b611edf611eb184611b9b565b611eba90615221565b611ec384611b9b565b611ecc90615221565b6001600160801b031660809190911b1790565b90508215611f12576003840154611f06908490600160801b906001600160801b031661352e565b60018501805490910190555b8115610c70576003840154611f37908390600160801b906001600160801b031661352e565b60028501805490910190559392505050565b8151611f5990610cba8360801c90565b611f688260200151610cba8390565b5050565b6080850151600160961b1615611e6e57611e6e63e1b4af6960e01b338787878787604051602401611e2c969594939291906153c2565b5f80611b9460017f7d4b3164c6e45b97e7d87b7125a44c5828d005af88f9d751cfd78729c5d99a0c6151fb565b5f6001600160a01b0383161561200857600160961b836001600160a01b031610158061200357506280000082161515610c70565b610c70565b50628000001615919050565b5f6280000082161561202757505f919050565b50627fffff811661203781612458565b919050565b7380000000000000000000000000000000000000008516156120be576120be633440d82060e01b338686868660405160240161207c959493929190615441565b60408051601f198184030181529190526020810180516001600160e01b03166001600160e01b0319909316929092179091526001600160a01b038716906134ea565b5050505050565b6002545f9081906001600160a01b03161561223f577f00000000000000000000000000000000000000000000000000000000000000005a101561211b57604051630f724b8160e11b815260040160405180910390fd5b6002546040515f9182916001600160a01b03909116907f00000000000000000000000000000000000000000000000000000000000000009063553bfc3760e01b9061216a908990602401615372565b60408051601f198184030181529181526020820180516001600160e01b03166001600160e01b03199094169390931790925290516121a891906154c8565b5f604051808303815f8787f1925050503d805f81146121e2576040519150601f19603f3d011682016040523d82523d5f602084013e6121e7565b606091505b50915091508115806121fa575060208151115b1561220b57505f9485945092505050565b602081015161ffff8116811480156122275750612227816135ca565b612232575f80612236565b6001815b90955093505050505b915091565b83545f906001600160a01b03161561226f57604051637983c05160e01b815260040160405180910390fd5b61227884613639565b604080516080810182526001600160a01b0396909616808752600283900b602088015261ffff9590951690860181905262ffffff9384166060909601869052865476ffffffffffffffffffffffffffffffffffffffffffffff1916909417600160a01b93821693909302929092177fffffffff0000000000ffffffffffffffffffffffffffffffffffffffffffffff16600160b81b90930262ffffff60c81b191692909217600160c81b90930292909217909255919050565b734000000000000000000000000000000000000000861615611e6e57611e6e63a910f80f60e01b338787878787604051602401611e2c969594939291906154de565b5f6001600160a01b038216612389575047919050565b6040516370a0823160e01b81523060048201526001600160a01b038316906370a0823190602401602060405180830381865afa1580156123cb573d5f803e3d5ffd5b505050506040513d601f19601f82011682018060405250810190610afa9190615564565b5f61241b60017f3e061da06d9da7c1d2a497a320750161d58a0fc1d9a008f9c4f3d1606155d86f6151fb565b90506001815d50565b5f61245060017f3e061da06d9da7c1d2a497a320750161d58a0fc1d9a008f9c4f3d1606155d86f6151fb565b90505f815d50565b620f424062ffffff821610611de457604051637e2df70960e11b815260040160405180910390fd5b81546001600160a01b03166124a85760405163486aa30760e01b815260040160405180910390fd5b815462ffffff909116600160c81b0262ffffff60c81b19909116179055565b81546001600160a01b03166124ef5760405163486aa30760e01b815260040160405180910390fd5b815461ffff909116600160b81b027fffffffffffffff0000ffffffffffffffffffffffffffffffffffffffffffffff909116179055565b5f8360400151138015612552575060808401517320000000000000000000000000000000000000001615155b156125805761257b63a6ab2a4360e01b338686868660405160240161207c95949392919061557b565b6120be565b5f8360400151131580156125ad575060808401517308000000000000000000000000000000000000001615155b156120be576120be632b58404e60e01b338686868660405160240161207c95949392919061557b565b80600f81900b8114612037576040516393dafdf160e01b815260040160405180910390fd5b5f61260e8260200151836040015161394b565b6040805160c0810182525f80825260208201819052918101829052606081018290526080810182905260a0810182905281906060850151600f0b1561278d5761266186866020015187606001515f6139e7565b6001600160801b03166020830152151581526040850151606086015161268a91889160016139e7565b6001600160801b031660608084019190915290151560408301528501515f600f9190910b131561274c575f6126c28660800151613abe565b9050806001600160801b031682602001516001600160801b0316111561270757602086015160405163b8e3c38560e01b815260029190910b60048201526024016111e7565b806001600160801b031682606001516001600160801b0316111561274a57604080870151905163b8e3c38560e01b815260029190910b60048201526024016111e7565b505b80511561276b576020850151608086015161276b916005890191613aeb565b80604001511561278d576040850151608086015161278d916005890191613aeb565b6127a08686602001518760400151613b88565b60a0830181905260808301829052606087810151885160208a8101516040808d015181519490961b6bffffffffffffffffffffffff19168484015260e891821b603485015294901b60378301528351601a818403018152603a90920184528151918101919091205f90815260068c0190915291909120612821939092613c3e565b80935081945050505f8560600151600f0b121561289b5780511561286b5761286b868660200151600290810b5f908152600490920160205260408220828155600181018390550155565b80604001511561289b57604080860151600290810b5f908152600489016020529182208281556001810183905501555b506060840151600f0b15612a2c5760208401518554600291820b600160a01b90910490910b1215612905576128fe6128f86128f36128dc8760200151613d6a565b6128e98860400151613d6a565b8860600151614085565b6125d6565b60801b90565b9250612a2c565b60408401518554600291820b600160a01b90910490910b12156129fb578454604085015161297391612948916128f3916001600160a01b0316906128e990613d6a565b611ecc6128f361295b8860200151613d6a565b895460608a01516001600160a01b03909116906140b8565b92505f8460600151600f0b126129a557606084015160038601546129a091906001600160801b0316615612565b6129cb565b83606001516129b390615221565b60038601546129cb91906001600160801b0316615639565b6003860180546fffffffffffffffffffffffffffffffff19166001600160801b0392909216919091179055612a2c565b612a295f611ecc6128f3612a128860200151613d6a565b612a1f8960400151613d6a565b89606001516140b8565b92505b612a4a83612a45612a3c85611b9b565b611ecc85611b9b565b6140e4565b95945050505050565b5f8460400151138015612a7f575060808501517310000000000000000000000000000000000000001615155b15612aaf57612aaa63b505b4ce60e01b338787878787604051602401611e2c96959493929190615659565b611e6e565b5f846040015113158015612adc575060808501517304000000000000000000000000000000000000001615155b15611e6e57611e6e63c3d5d4e660e01b338787878787604051602401611e2c96959493929190615659565b608084015173020000000000000000000000000000000000000016156120be576120be63575e24b460e01b338686868660405160240161207c9594939291906156f7565b6040805160c0810182525f80825260208201819052918101829052606081018290526080810182905260a081018290528190819084604001515f03612ba35760405163be8b850760e01b815260040160405180910390fd5b6040805160808101825287546001600160a01b0381168252600160a01b810460020b602080840191909152600160b81b820461ffff1693830193909352600160c81b900462ffffff1660608201819052918701519193509015612ca457805f01516001600160a01b031686606001516001600160a01b031610612c535780516060870151604051637c9c6e8f60e01b81526001600160a01b039283166004820152911660248201526044016111e7565b6401000276a36001600160a01b031686606001516001600160a01b031611612c9f576060860151604051639e4d7cc760e01b81526001600160a01b0390911660048201526024016111e7565b612d52565b805f01516001600160a01b031686606001516001600160a01b031611612cf75780516060870151604051637c9c6e8f60e01b81526001600160a01b039283166004820152911660248201526044016111e7565b73fffd8963efd1fc6a506488495d951d5263988d266001600160a01b031686606001516001600160a01b031610612d52576060860151604051639e4d7cc760e01b81526001600160a01b0390911660048201526024016111e7565b6040805180820190915260038801546001600160801b031681526020878101515f9291820190612d8e576008846040015161ffff16901c612da0565b6101008460400151612da09190615796565b60ff1681525090505f8088604001511290506040518060c00160405280896040015181526020015f8152602001845f01516001600160a01b03168152602001846020015160020b81526020018960200151612dff578a60020154612e05565b8a600101545b815283516001600160801b03166020918201526040805160e0810182525f808252928101839052908101829052606081018290526080810182905260a0810182905260c08101919091529094505b845115801590612e7d575088606001516001600160a01b031685604001516001600160a01b031614155b1561323f5760408501516001600160a01b031681526060850151895160208b0151612eae9260058e01929091614110565b1515604083015260020b60208201819052620d89e7191315612ed957620d89e7196020820152612f0d565b612ee6620d89e7196157b6565b60020b816020015160020b1315612f0d57612f04620d89e7196157b6565b60020b60208201525b612f1a8160200151613d6a565b6001600160a01b03166060820152604085015160208a0151612f9c9190612f5d578a606001516001600160a01b031683606001516001600160a01b031611612f7b565b8a606001516001600160a01b031683606001516001600160a01b0316105b612f89578260600151612f8f565b8a606001515b60a088015188518a61424a565b60c085015260a084015260808301526001600160a01b031660408601528115612ffe57612fd28160c0015182608001510161442d565b855101855260a0810151612fe59061442d565b8560200151612ff4919061534b565b6020860152613041565b61300b8160a0015161442d565b855103855260c0810151608082015161302c916130279161520e565b61442d565b856020015161303b91906157ce565b60208601525b602083015160ff1615613078575f836020015160ff168260c0015161306691906157ed565b60c08301805182900390529790970196505b60a08501516001600160801b0316156130b7576130ab8160c00151600160801b8760a001516001600160801b031661352e565b60808601805190910190525b80606001516001600160a01b031685604001516001600160a01b03160361320d578060400151156131e4575f61318e8b83602001518c602001516130ff578d60010154613105565b88608001515b8d6020015161314e578960800151600292830b5f90815260049094016020526040909320600181018054909203909155908101805490920390915554600160801b9004600f0b90565b8e60020154600292830b5f90815260049094016020526040909320600181018054909203909155908101805490920390915554600160801b9004600f0b90565b905089602001511561319d575f035b5f81600f0b126131bc57808660a001516131b79190615612565b6131d4565b6131c581615221565b8660a001516131d49190615639565b6001600160801b031660a0870152505b88602001516131f7578060200151613200565b60018160200151035b60020b6060860152612e53565b805f01516001600160a01b031685604001516001600160a01b03161461323a576132008560400151613639565b612e53565b604085015160608601518b5476ffffffffffffffffffffffffffffffffffffffffffffff1916600160a01b62ffffff9092169190910273ffffffffffffffffffffffffffffffffffffffff1916176001600160a01b03909116178a5560a085015183516001600160801b039182169116146132e45760a085015160038b0180546fffffffffffffffffffffffffffffffff19166001600160801b039092169190911790555b8860200151156132fd57608085015160018b0155613308565b608085015160028b01555b81151589602001511515036133405761333961332c865f01518b60400151036125d6565b611ecc87602001516125d6565b9750613365565b61336261335086602001516125d6565b611ecc875f01518c60400151036125d6565b97505b5050505092959194509250565b60808501517301000000000000000000000000000000000000001615611e6e57611e6e63b47b2fb160e01b338787878787604051602401611e2c96959493929190615800565b336001600160a01b03841681148015906133f757506001600160a01b038085165f9081526003602090815260408083209385168352929052205460ff16155b1561346b576001600160a01b038085165f9081526005602090815260408083209385168352928152828220868352905220545f1981146134695761343b83826151fb565b6001600160a01b038087165f9081526005602090815260408083209387168352928152828220888352905220555b505b611cf684848461446f565b5f6134a260017f7d4b3164c6e45b97e7d87b7125a44c5828d005af88f9d751cfd78729c5d99a0c6151fb565b90505f19815c0180825d5050565b5f6134dc60017f7d4b3164c6e45b97e7d87b7125a44c5828d005af88f9d751cfd78729c5d99a0c6151fb565b90506001815c0180825d5050565b5f806134f684846144eb565b91509150816001600160e01b031916816001600160e01b03191614611cf657604051631e048e1d60e01b815260040160405180910390fd5b5f838302815f198587098281108382030391505080841161354d575f80fd5b805f0361355f57508290049050610c70565b5f848688095f868103871696879004966002600389028118808a02820302808a02820302808a02820302808a02820302808a02820302808a02909103029181900381900460010186841190950394909402919094039290920491909117919091029150509392505050565b5f61ffff821615613631575f6135e261010084615796565b905060ff600884901c1661ffff8216158015906136035750600461ffff8316105b80613620575061ffff8116158015906136205750600461ffff8216105b1561362e57505f9392505050565b50505b506001919050565b5f6401000276a36001600160a01b0383161080613673575073fffd8963efd1fc6a506488495d951d5263988d266001600160a01b03831610155b156136915760405163015680db60e11b815260040160405180910390fd5b77ffffffffffffffffffffffffffffffffffffffff00000000602083901b166001600160801b03811160071b81811c67ffffffffffffffff811160061b90811c63ffffffff811160051b90811c61ffff811160041b90811c60ff8111600390811b91821c600f811160021b90811c918211600190811b92831c9790881196179094179092171790911717176080811061373257607f810383901c915061373c565b80607f0383901b91505b908002607f81811c60ff83811c9190911c800280831c81831c1c800280841c81841c1c800280851c81851c1c800280861c81861c1c800280871c81871c1c800280881c81881c1c800280891c81891c1c8002808a1c818a1c1c8002808b1c818b1c1c8002808c1c818c1c1c8002808d1c818d1c1c8002808e1c9c81901c9c909c1c80029c8d901c9e9d607f198f0160401b60c09190911c678000000000000000161760c19b909b1c674000000000000000169a909a1760c29990991c672000000000000000169890981760c39790971c671000000000000000169690961760c49590951c670800000000000000169490941760c59390931c670400000000000000169290921760c69190911c670200000000000000161760c79190911c670100000000000000161760c89190911c6680000000000000161760c99190911c6640000000000000161760ca9190911c6620000000000000161760cb9190911c6610000000000000161760cc9190911c6608000000000000161760cd9190911c66040000000000001617693627a301d71055774c8581026f028f6481ab7f045a5af012a19d003aa9198101608090811d906fdb2df09e81959a81455e260799a0632f8301901d600281810b9083900b1461393c57886001600160a01b031661392182613d6a565b6001600160a01b03161115613936578161393e565b8061393e565b815b9998505050505050505050565b8060020b8260020b1261397f5760405163c4433ed560e01b8152600283810b600483015282900b60248201526044016111e7565b620d89e719600283900b12156139ae5760405163d5e2f7ab60e01b8152600283900b60048201526024016111e7565b6139bb620d89e7196157b6565b60020b8160020b1315611f685760405163035aeeff60e31b8152600282900b60048201526024016111e7565b600283900b5f908152600485016020526040812080548291906001600160801b0381169060801c600f87900b8413613a2857613a238783615612565b613a3b565b613a3187615221565b613a3b9083615639565b6001600160801b03808216159084168015919091141596509094505f03613a88578854600160a01b9004600290810b9089900b13613a88576001808a0154908401556002808a0154908401555b5f86613a9d57613a98888361588b565b613aa7565b613aa788836158ca565b90508060801b851784555050505094509492505050565b5f621b13d08201600290810b9083900b6001600160801b030281613ae457613ae4615782565b0492915050565b8060020b8260020b81613b0057613b00615782565b0760020b15613b3057604051636a6c79f360e11b8152600283810b600483015282900b60248201526044016111e7565b5f80613b5d8360020b8560020b81613b4a57613b4a615782565b0560020b600881901d9161010090910790565b600191820b5f9081526020979097526040909620805460ff9097169190911b90951890945550505050565b600282810b5f81815260048601602052604080822085850b835290822087549294859492939192600160a01b909204900b90811215613be0578160010154836001015403945081600201548360020154039350613c33565b8560020b8160020b12613c0c578260010154826001015403945082600201548260020154039350613c33565b81600101548360010154896001015403039450816002015483600201548960020154030393505b505050935093915050565b6040805160608101825285546001600160801b03168152600186015460208201526002860154918101919091525f90819081600f87900b8103613cad5781516001600160801b03165f03613ca557604051632bbfae4960e21b815260040160405180910390fd5b508051613ce1565b5f87600f0b12613cc9578151613cc4908890615612565b613cde565b613cd287615221565b8251613cde9190615639565b90505b613d0282602001518703835f01516001600160801b0316600160801b61352e565b9350613d2582604001518603835f01516001600160801b0316600160801b61352e565b925086600f0b5f14613d545787546fffffffffffffffffffffffffffffffff19166001600160801b0382161788555b5050600186019390935560029094015591929050565b5f805f8360020b12613d7f578260020b613d86565b8260020b5f035b9050620d89e8811115613dac576040516333a3bdff60e21b815260040160405180910390fd5b5f816001165f03613dc157600160801b613dd3565b6ffffcb933bd6fad37aa2d162d1a5940015b70ffffffffffffffffffffffffffffffffff1690506002821615613e07576ffff97272373d413259a46990580e213a0260801c5b6004821615613e26576ffff2e50f5f656932ef12357cf3c7fdcc0260801c5b6008821615613e45576fffe5caca7e10e4e61c3624eaa0941cd00260801c5b6010821615613e64576fffcb9843d60f6159c9db58835c9266440260801c5b6020821615613e83576fff973b41fa98c081472e6896dfb254c00260801c5b6040821615613ea2576fff2ea16466c96a3843ec78b326b528610260801c5b6080821615613ec1576ffe5dee046a99a2a811c461f1969c30530260801c5b610100821615613ee1576ffcbe86c7900a88aedcffc83b479aa3a40260801c5b610200821615613f01576ff987a7253ac413176f2b074cf7815e540260801c5b610400821615613f21576ff3392b0822b70005940c7a398e4b70f30260801c5b610800821615613f41576fe7159475a2c29b7443b29c7fa6e889d90260801c5b611000821615613f61576fd097f3bdfd2022b8845ad8f792aa58250260801c5b612000821615613f81576fa9f746462d870fdf8a65dc1f90e061e50260801c5b614000821615613fa1576f70d869a156d2a1b890bb3df62baf32f70260801c5b618000821615613fc1576f31be135f97d08fd981231505542fcfa60260801c5b62010000821615613fe2576f09aa508b5b7a84e1c677de54f3e99bc90260801c5b62020000821615614002576e5d6af8dedb81196699c329225ee6040260801c5b62040000821615614021576d2216e584f5fa1ea926041bedfe980260801c5b6208000082161561403e576b048a170391f7dc42444e8fa20260801c5b5f8460020b131561405d57805f198161405957614059615782565b0490505b640100000000810615614071576001614073565b5f5b60ff16602082901c0192505050919050565b5f8082600f0b126140a7576140a0613027858585600161457e565b5f03610bb5565b610bb56130278585855f035f61457e565b5f8082600f0b126140d3576140a0613027858585600161465b565b610bb56130278585855f035f61465b565b5f610c706140f28360801c90565b6140fc8560801c90565b614106919061588b565b611ecc848661588b565b5f805f8460020b8660020b8161412857614128615782565b0590505f8660020b12801561415457508460020b8660020b8161414d5761414d615782565b0760020b15155b1561415d575f19015b83156141cf57600281900b600881901d600181810b5f90815260208b9052604090205461010090930760ff81169190911b80015f1901928316801515955091929091856141b157888360ff168603026141c4565b886141bb826146d8565b840360ff168603025b965050505050614240565b600181810160020b600881901d80830b5f90815260208b9052604090205461010090920760ff81169390931b5f1901199182168015159550909291908561422357888360ff0360ff16866001010102614239565b888361422e83614776565b0360ff168660010101025b9650505050505b5094509492505050565b5f8080806001600160a01b03808916908a16101581871280156142ce575f614282895f0389620f42400362ffffff16620f424061352e565b90508261429b576142968c8c8c600161465b565b6142a8565b6142a88b8d8c600161457e565b95508581106142b9578a96506142c8565b6142c58c8b838661485d565b96505b50614310565b816142e4576142df8b8b8b5f61457e565b6142f0565b6142f08a8c8b5f61465b565b935083881061430157899550614310565b61430d8b8a8a856148b8565b95505b6001600160a01b038a81169087161482156143725780801561432f5750815b61434557614340878d8c600161457e565b614347565b855b9550808015614354575081155b61436957614364878d8c5f61465b565b61436b565b845b94506143bb565b80801561437c5750815b6143925761438d8c888c600161465b565b614394565b855b95508080156143a1575081155b6143b6576143b18c888c5f61457e565b6143b8565b845b94505b811580156143c857508885115b156143d1578894505b8180156143f057508a6001600160a01b0316876001600160a01b031614155b156144015785895f0303935061441e565b61441b868962ffffff168a620f42400362ffffff16614911565b93505b50505095509550955095915050565b5f7f7fffffffffffffffffffffffffffffffffffffffffffffffffffffffffffffff821115611bcd576040516393dafdf160e01b815260040160405180910390fd5b6001600160a01b0383165f908152600460209081526040808320858452909152812080548392906144a19084906151fb565b9091555050604080513381526020810183905283915f916001600160a01b038716917f1b3d7edb2e9c0b0e7c525b20aaaef0f5940d2ed71663c7d39266ecafac7288599101611d74565b5f80602083015191505f80856001600160a01b03168560405161450e91906154c8565b5f604051808303815f865af19150503d805f8114614547576040519150601f19603f3d011682016040523d82523d5f602084013e61454c565b606091505b50915091508161455f5761455f8161494d565b808060200190518101906145739190615909565b925050509250929050565b5f836001600160a01b0316856001600160a01b0316111561459d579293925b7bffffffffffffffffffffffffffffffff000000000000000000000000606084901b166001600160a01b0386860381169087165f036145ee5760405162bfc92160e01b815260040160405180910390fd5b8361462457866001600160a01b03166146118383896001600160a01b031661352e565b8161461e5761461e615782565b04614650565b61465061463b8383896001600160a01b0316614911565b886001600160a01b0316808204910615150190565b979650505050505050565b5f836001600160a01b0316856001600160a01b0316111561467a579293925b816146ae576146a96001600160801b0384166146968787615924565b6001600160a01b0316600160601b61352e565b612a4a565b612a4a6001600160801b0384166146c58787615924565b6001600160a01b0316600160601b614911565b5f8082116146e4575f80fd5b600160801b82106146f757608091821c91015b68010000000000000000821061470f57604091821c91015b640100000000821061472357602091821c91015b62010000821061473557601091821c91015b610100821061474657600891821c91015b6010821061475657600491821c91015b6004821061476657600291821c91015b6002821061203757600101919050565b5f808211614782575f80fd5b5060ff6001600160801b0382161561479d57607f19016147a5565b608082901c91505b67ffffffffffffffff8216156147be57603f19016147c6565b604082901c91505b63ffffffff8216156147db57601f19016147e3565b602082901c91505b61ffff8216156147f657600f19016147fe565b601082901c91505b60ff8216156148105760071901614818565b600882901c91505b600f82161561482a5760031901614832565b600482901c91505b6003821615614844576001190161484c565b600282901c91505b6001821615612037575f1901919050565b5f6001600160a01b038516158061487b57506001600160801b038416155b15614899576040516309e48c3760e31b815260040160405180910390fd5b816148ab576146a98585856001614976565b612a4a8585856001614a6d565b5f6001600160a01b03851615806148d657506001600160801b038416155b156148f4576040516309e48c3760e31b815260040160405180910390fd5b81614905576146a98585855f614a6d565b612a4a8585855f614976565b5f61491d84848461352e565b90505f828061492e5761492e615782565b8486091115610c70575f198110614943575f80fd5b6001019392505050565b80515f0361496e576040516336bc48c560e01b815260040160405180910390fd5b805181602001fd5b5f81156149e6575f6001600160a01b038411156149aa576149a584600160601b876001600160801b031661352e565b6149c1565b6149c16001600160801b038616606086901b6157ed565b90506149de6149d9826001600160a01b03891661520e565b614b83565b915050610bb5565b5f6001600160a01b03841115614a1357614a0e84600160601b876001600160801b0316614911565b614a30565b614a30606085901b6001600160801b038716808204910615150190565b905080866001600160a01b031611614a5b57604051634323a55560e01b815260040160405180910390fd5b6001600160a01b038616039050610bb5565b5f825f03614a7c575083610bb5565b7bffffffffffffffffffffffffffffffff000000000000000000000000606085901b168215614b20576001600160a01b03861684810290858281614ac257614ac2615782565b0403614af257818101828110614af057614ae683896001600160a01b031683614911565b9350505050610bb5565b505b506149de8185614b0b6001600160a01b038a16836157ed565b614b15919061520e565b808204910615150190565b6001600160a01b03861684810290858281614b3d57614b3d615782565b04141580614b4b5750808211155b15614b695760405163f5c787f160e01b815260040160405180910390fd5b808203614ae66149d9846001600160a01b038b1684614911565b806001600160a01b0381168114612037576040516393dafdf160e01b815260040160405180910390fd5b6001600160a01b0381168114611de4575f80fd5b5f8060408385031215614bd2575f80fd5b8235614bdd81614bad565b946020939093013593505050565b6001600160e01b031981168114611de4575f80fd5b5f60208284031215614c10575f80fd5b8135610c7081614beb565b8035600281900b8114612037575f80fd5b5f805f8060808587031215614c3f575f80fd5b843593506020850135614c5181614bad565b9250614c5f60408601614c1b565b9150614c6d60608601614c1b565b905092959194509250565b5f805f60608486031215614c8a575f80fd5b8335614c9581614bad565b95602085013595506040909401359392505050565b5f805f60608486031215614cbc575f80fd5b8335614cc781614bad565b92506020840135614cd781614bad565b929592945050506040919091013590565b5f60208284031215614cf8575f80fd5b8135610c7081614bad565b5f60208284031215614d13575f80fd5b5035919050565b634e487b7160e01b5f52604160045260245ffd5b6040516060810167ffffffffffffffff81118282101715614d5157614d51614d1a565b60405290565b803562ffffff81168114612037575f80fd5b5f60a08284031215614d79575f80fd5b60405160a0810181811067ffffffffffffffff82111715614d9c57614d9c614d1a565b6040529050808235614dad81614bad565b81526020830135614dbd81614bad565b6020820152614dce60408401614d57565b6040820152614ddf60608401614c1b565b60608201526080830135614df281614bad565b6080919091015292915050565b5f8083601f840112614e0f575f80fd5b50813567ffffffffffffffff811115614e26575f80fd5b602083019150836020828501011115614e3d575f80fd5b9250929050565b5f805f805f6101008688031215614e59575f80fd5b614e638787614d69565b945060a0860135935060c0860135925060e086013567ffffffffffffffff811115614e8c575f80fd5b614e9888828901614dff565b969995985093965092949392505050565b5f8060408385031215614eba575f80fd5b50508035926020909101359150565b602081525f82518060208401528060208501604085015e5f604082850101526040601f19601f83011684010191505092915050565b80358015158114612037575f80fd5b5f8060408385031215614f1e575f80fd5b8235614f2981614bad565b9150614f3760208401614efe565b90509250929050565b5f8060408385031215614f51575f80fd5b82359150614f3760208401614c1b565b5f805f8060e08587031215614f74575f80fd5b614f7e8686614d69565b935060a0850135614f8e81614bad565b925060c085013567ffffffffffffffff811115614fa9575f80fd5b614fb587828801614dff565b95989497509550505050565b5f8060408385031215614fd2575f80fd5b8235915060208301358060010b8114614fe9575f80fd5b809150509250929050565b5f8060208385031215615005575f80fd5b823567ffffffffffffffff81111561501b575f80fd5b61502785828601614dff565b90969095509350505050565b5f8060c08385031215615044575f80fd5b61504e8484614d69565b9150614f3760a08401614d57565b5f806040838503121561506d575f80fd5b823561507881614bad565b91506020830135614fe981614bad565b5f60a08284031215615098575f80fd5b610c708383614d69565b5f805f808486036101208112156150b7575f80fd5b6150c18787614d69565b94506060609f19820112156150d4575f80fd5b506150dd614d2e565b6150e960a08701614c1b565b81526150f760c08701614c1b565b602082015260e08601356040820152925061010085013567ffffffffffffffff811115614fa9575f80fd5b5f805f80848603610120811215615137575f80fd5b6151418787614d69565b94506060609f1982011215615154575f80fd5b5061515d614d2e565b61516960a08701614efe565b815260c0860135602082015260e086013561518381614bad565b6040820152925061010085013567ffffffffffffffff811115614fa9575f80fd5b5f805f80608085870312156151b7575f80fd5b84356151c281614bad565b935060208501356151d281614bad565b93969395505050506040820135916060013590565b634e487b7160e01b5f52601160045260245ffd5b81810381811115610afa57610afa6151e7565b80820180821115610afa57610afa6151e7565b5f81600f0b6f7fffffffffffffffffffffffffffffff198103615246576152466151e7565b5f0392915050565b8082028115828204841417610afa57610afa6151e7565b81835281816020850137505f828201602090810191909152601f909101601f19169091010190565b602081525f610bb5602083018486615265565b5f602082840312156152b0575f80fd5b815167ffffffffffffffff808211156152c7575f80fd5b818401915084601f8301126152da575f80fd5b8151818111156152ec576152ec614d1a565b604051601f8201601f19908116603f0116810190838211818310171561531457615314614d1a565b8160405282815287602084870101111561532c575f80fd5b8260208601602083015e5f928101602001929092525095945050505050565b8082018281125f83128015821682158216171561536a5761536a6151e7565b505092915050565b60a08101610afa82846001600160a01b0380825116835280602083015116602084015262ffffff6040830151166040840152606082015160020b6060840152806080830151166080840152505050565b5f6101206001600160a01b038916835261542160208401896001600160a01b0380825116835280602083015116602084015262ffffff6040830151166040840152606082015160020b6060840152806080830151166080840152505050565b8660c08401528560e08401528061010084015261393e8184018587615265565b5f6101006001600160a01b0380891684526154a160208501896001600160a01b0380825116835280602083015116602084015262ffffff6040830151166040840152606082015160020b6060840152806080830151166080840152505050565b861660c084015260e083018190526154bc8184018587615265565b98975050505050505050565b5f82518060208501845e5f920191825250919050565b5f6101206001600160a01b03808a16845261553e602085018a6001600160a01b0380825116835280602083015116602084015262ffffff6040830151166040840152606082015160020b6060840152806080830151166080840152505050565b80881660c0850152508560020b60e08401528061010084015261393e8184018587615265565b5f60208284031215615574575f80fd5b5051919050565b5f6101406001600160a01b03881683526155da60208401886001600160a01b0380825116835280602083015116602084015262ffffff6040830151166040840152606082015160020b6060840152806080830151166080840152505050565b8551600290810b60c08501526020870151900b60e084015260408601516101008401525b806101208401526154bc8184018587615265565b6001600160801b03818116838216019080821115615632576156326151e7565b5092915050565b6001600160801b03828116828216039080821115615632576156326151e7565b5f6101606001600160a01b03891683526156b860208401896001600160a01b0380825116835280602083015116602084015262ffffff6040830151166040840152606082015160020b6060840152806080830151166080840152505050565b8651600290810b60c08501526020880151900b60e084015260408701516101008401525b856101208401528061014084015261393e8184018587615265565b5f6101406001600160a01b038816835261575660208401886001600160a01b0380825116835280602083015116602084015262ffffff6040830151166040840152606082015160020b6060840152806080830151166080840152505050565b8551151560c0840152602086015160e084015260408601516001600160a01b03166101008401526155fe565b634e487b7160e01b5f52601260045260245ffd5b5f61ffff808416806157aa576157aa615782565b92169190910692915050565b5f8160020b627fffff198103615246576152466151e7565b8181035f831280158383131683831282161715615632576156326151e7565b5f826157fb576157fb615782565b500490565b5f6101606001600160a01b038916835261585f60208401896001600160a01b0380825116835280602083015116602084015262ffffff6040830151166040840152606082015160020b6060840152806080830151166080840152505050565b8651151560c0840152602087015160e084015260408701516001600160a01b03166101008401526156dc565b600f81810b9083900b016f7fffffffffffffffffffffffffffffff81136f7fffffffffffffffffffffffffffffff1982121715610afa57610afa6151e7565b600f82810b9082900b036f7fffffffffffffffffffffffffffffff1981126f7fffffffffffffffffffffffffffffff82131715610afa57610afa6151e7565b5f60208284031215615919575f80fd5b8151610c7081614beb565b6001600160a01b03828116828216039080821115615632576156326151e756fea2646970667358221220447cb7ccc60b18e33dc5e8259c3c8e6b9149428d1525997ed9e04eeba15274d064736f6c63430008190033","linkReferences":{}},"methodIdentifiers":{"MAX_TICK_SPACING()":"60460f06","MIN_PROTOCOL_FEE_DENOMINATOR()":"84e41c5e","MIN_TICK_SPACING()":"07eff0dd","allowance(address,address,uint256)":"598af9e7","approve(address,uint256,uint256)":"426a8493","balanceOf(address,uint256)":"00fdd58e","burn(address,uint256,uint256)":"f5298aca","collectProtocolFees(address,address,uint256)":"8161b874","currencyDelta(address,address)":"a54b2831","donate((address,address,uint24,int24,address),uint256,uint256,bytes)":"234266d7","extsload(bytes32)":"1e2eaeaf","extsload(bytes32,uint256)":"35fd631a","getLiquidity(bytes32)":"fa6793d5","getLiquidity(bytes32,address,int24,int24)":"33aa955b","getLockNonzeroDeltaCount()":"46063d05","getPoolBitmapInfo(bytes32,int16)":"7c352ef6","getPoolTickInfo(bytes32,int24)":"5aa208a4","getPosition(bytes32,address,int24,int24)":"048d9c70","getSlot0(bytes32)":"c815641c","initialize((address,address,uint24,int24,address),uint160,bytes)":"695c5bf5","isLockSet()":"d9b054b4","isOperator(address,address)":"b6363cf2","lock(bytes)":"81548319","mint(address,uint256,uint256)":"156e29f6","modifyLiquidity((address,address,uint24,int24,address),(int24,int24,int256),bytes)":"bec999dd","owner()":"8da5cb5b","pools(bytes32)":"b5217bb4","protocolFeeController()":"f02de3b2","protocolFeesAccrued(address)":"97e8cd4e","reservesOf(address)":"93c85a21","setOperator(address,bool)":"558a7297","setOwner(address)":"13af4035","setProtocolFee((address,address,uint24,int24,address))":"b02375ce","setProtocolFeeController(address)":"2d771389","settle(address)":"6a256b29","supportsInterface(bytes4)":"01ffc9a7","swap((address,address,uint24,int24,address),(bool,int256,uint160),bytes)":"f3cd914c","take(address,address,uint256)":"0b0d9c09","transfer(address,uint256,uint256)":"095bcdb6","transferFrom(address,address,uint256,uint256)":"fe99049a","updateDynamicSwapFee((address,address,uint24,int24,address),uint24)":"a412b9d8"},"id":30}