{"abi":[{"type":"function","name":"protocolFeeForPool","inputs":[{"name":"key","type":"tuple","internalType":"struct PoolKey","components":[{"name":"currency0","type":"address","internalType":"Currency"},{"name":"currency1","type":"address","internalType":"Currency"},{"name":"fee","type":"uint24","internalType":"uint24"},{"name":"tickSpacing","type":"int24","internalType":"int24"},{"name":"hooks","type":"address","internalType":"contract IHooks"}]}],"outputs":[{"name":"","type":"uint16","internalType":"uint16"}],"stateMutability":"view"},{"type":"function","name":"setSwapFeeForPool","inputs":[{"name":"id","type":"bytes32","internalType":"PoolId"},{"name":"fee","type":"uint16","internalType":"uint16"}],"outputs":[],"stateMutability":"nonpayable"},{"type":"function","name":"swapFeeForPool","inputs":[{"name":"","type":"bytes32","internalType":"PoolId"}],"outputs":[{"name":"","type":"uint16","internalType":"uint16"}],"stateMutability":"view"}],"bytecode":{"object":"0x6080604052348015600e575f80fd5b506102df8061001c5f395ff3fe608060405234801561000f575f80fd5b506004361061003f575f3560e01c806308b3dfd614610043578063553bfc371461007d5780639d24676114610090575b5f80fd5b61006661005136600461016b565b5f6020819052908152604090205461ffff1681565b60405161ffff909116815260200160405180910390f35b61006661008b3660046101d9565b6100c3565b6100c161009e366004610275565b5f91825260208290526040909120805461ffff191661ffff909216919091179055565b005b5f805f6100cf846100e9565b815260208101919091526040015f205461ffff1692915050565b5f8160405160200161014e9190815173ffffffffffffffffffffffffffffffffffffffff908116825260208084015182169083015260408084015162ffffff169083015260608084015160020b90830152608092830151169181019190915260a00190565b604051602081830303815290604052805190602001209050919050565b5f6020828403121561017b575f80fd5b5035919050565b73ffffffffffffffffffffffffffffffffffffffff811681146101a3575f80fd5b50565b80356101b181610182565b919050565b803562ffffff811681146101b1575f80fd5b8035600281900b81146101b1575f80fd5b5f60a082840312156101e9575f80fd5b60405160a0810181811067ffffffffffffffff8211171561021857634e487b7160e01b5f52604160045260245ffd5b604052823561022681610182565b8152602083013561023681610182565b6020820152610247604084016101b6565b6040820152610258606084016101c8565b6060820152610269608084016101a6565b60808201529392505050565b5f8060408385031215610286575f80fd5b82359150602083013561ffff8116811461029e575f80fd5b80915050925092905056fea2646970667358221220451d00b72e9b08e825a4bb3ed03c4486cc290db71aa5097c316b9a8b5215134664736f6c63430008190033","linkReferences":{}},"methodIdentifiers":{"protocolFeeForPool((address,address,uint24,int24,address))":"553bfc37","setSwapFeeForPool(bytes32,uint16)":"9d246761","swapFeeForPool(bytes32)":"08b3dfd6"},"id":63}